:100000000C9446000C9465000C9465000C946500FB
:100010000C9465000C9465000C9465000C946500CC
:100020000C9465000C9465000C9465000C946500BC
:100030000C9465000C9465000C942B030C946500E3
:100040000C9465000C9465000C9465000C9465009C
:100050000C9465000C9465000C9465000C9465008C
:100060000C9465000C9465000C9465000C9465007C
:100070000C9465000C9477030C9465000C94650057
:100080000C9465000C9465000C94650011241FBE4F
:10009000CFEFD0E1DEBFCDBF12E0A0E0B1E0E2E9FA
:1000A000F5E100E00BBF02C007900D92A835B10743
:1000B000D9F712E0A8E5B2E001C01D92A73BB10755
:1000C000E1F70E947C040C94C70A0C940000262FD0
:1000D000372FD901E82FF92F04C021919D912917BD
:1000E00031F49E2F981B9417C0F380E0089581E0AF
:1000F0000895282F392FD901862F972FFC0180E0F2
:1001000003C09D9191938F5F8417D8F308958FEF6B
:1001100080934C0280934D0280934E0280934F0255
:100120008093500280935102809352028093530235
:10013000089584E08EBD89E19CE09DBD8CBD87B7AC
:10014000846087BF7894089584E080938A0089E171
:100150009CE09093890080938800EDE7F0E0808137
:100160008460808378940895C89908C0809164025F
:10017000882321F01092640281E00895C99908C093
:1001800080916402882321F01092640282E0089535
:10019000CA9908C080916402882321F010926402F9
:1001A00083E00895CB9908C080916402882321F0F0
:1001B0001092640284E00895CC9908C08091640292
:1001C000882321F01092640285E00895E9B389B391
:1001D00069B349B329B390E082709070F0E0E170A8
:1001E000F0708E2B9F2B70E064707070862B972BB5
:1001F00050E048705070842B952B30E020713070A7
:10020000822B932B8F31910529F481E08093640236
:1002100080E0089580E008950F931F93DF93CF93BC
:10022000CDB7DEB760970FB6F894DEBF0FBECDBF77
:100230002DB73EB7285030400FB6F8943EBF0FBEE2
:100240002DBFEDB7FEB731968E010F5F1F4FADB7D3
:10025000BEB712961C930E93119720E031E03383C2
:10026000228364837583868397830E94AD072DB7AD
:100270003EB7285F3F4F0FB6F8943EBF0FBE2DBF6D
:1002800080E80E94D504C8010E943F0580E0609686
:100290000FB6F894DEBF0FBECDBFCF91DF911F9197
:1002A0000F9108951092590210925A0281E00E9413
:1002B000D50483E091E060E10E94710580915402D1
:1002C00090915502A0915602B091570280935D0221
:1002D00090935E02A0935F02B0936002DE9A08954D
:1002E00010925A02DE9A0895CF93DF9310925A0229
:1002F000109259028091540290915502A091560299
:10030000B091570280935D0290935E02A0935F02CA
:10031000B093600281E00E94D504C4E1D1E0CE0137
:100320000E943F0580EC0E94D504CE010E943F054B
:10033000DE9ADF91CF9108958CE492E068E00E940C
:10034000E806882369F08CE492E064E472E048E017
:100350000E946700882331F40E94870081E008959D
:1003600080E0089580E00895813001F58091590280
:10037000882329F00E94520110925B0215C010924E
:100380005B0282E08093130281E00E94D504809199
:10039000130290E024E0880F991F2A95E1F78D550C
:1003A0009E4F60E10E94710581E0089580E008950C
:1003B0001F93823009F46BC0843031F19091630255
:1003C000903119F49FE09093630290916302E92FBA
:1003D000F0E0EB59FD4F805D8083892F8F5F809324
:1003E000630290E206C0E82FF0E0EB59FD4F9083E6
:1003F0008F5F8031C0F380EC0E94D50485E692E0E7
:1004000060E10E9471051DC180915A028823D9F0D4
:100410001092130281E00E94D5048091130290E0B3
:1004200044E0880F991F4A95E1F78D559E4F60E192
:100430000E947105E5E6F2E080E2819392E0E53703
:10044000F907D9F720C080915802882349F080919C
:1004500013028F5F80931302873029F483E001C079
:1004600081E08093130281E00E94D5048091130201
:1004700090E034E0880F991F3A95E1F78D559E4F33
:1004800060E10E947105E5E6F2E080E2D3C01091E0
:100490001302133009F45AC0143028F41130F9F063
:1004A0001230C0F509C0153009F477C0153008F4D2
:1004B00065C0163041F789C085E692E064E372E0DA
:1004C00040E10E946700882399F480EC0E94D504E3
:1004D00086E391E00E943F050E947001D4CF85E63B
:1004E00092E064E272E040E10E946700882331F00C
:1004F00080EC0E94D50485E291E01AC080EC0E9455
:10050000D50486E391E00E943F0510935A021093B0
:100510005902B9CF85E692E064E172E040E10E94C1
:100520006700882341F080EC0E94D50487E491E0C5
:100530000E943F05A8CF80EC0E94D50488E591E099
:100540000E943F0581E0809358029DCF85E692E0AE
:1005500064E172E040E10E94790081E080936202F0
:1005600084E192E061E070E040E150E00E94030A23
:1005700080EC0E94D50488E591E0DACF85E692E030
:1005800064E272E040E10E94790081E180936202BE
:1005900084E292E061E170E00EC085E692E064E3FF
:1005A00072E040E10E94790081E28093620284E37C
:1005B00092E061E270E040E150E00E94030A80ECCA
:1005C0000E94D50486E391E0B3CFE5E6F2E08081B6
:1005D000803209F41082319682E0E537F807B9F7E6
:1005E000CF0140970E948707AC01662757FD6095B1
:1005F000762F4093540250935502609356027093A5
:10060000570240935D0250935E0260935F027093C5
:10061000600281E38093620281E390E00E941A0A03
:1006200080EC0E94D50489E691E00E943F0510927B
:10063000580229CF819392E0E537F907D9F7109254
:10064000630280E01F9108951BBA80EC8ABB15BA43
:1006500087EF84BB08951F920F920FB60F920BB6CF
:100660000F9211242F933F934F935F936F937F9338
:100670008F939F93AF93BF93EF93FF938CE997EE84
:100680009DBD8CBD84E08EBD87B7846087BF6091BF
:100690005D0270915E0280915F02909160020E9403
:1006A0000C0180915B02882329F40E949C018093B5
:1006B0005B0202C00E94B4010E94B40080936102F8
:1006C000882311F00E94D801FF91EF91BF91AF9163
:1006D0009F918F917F916F915F914F913F912F915A
:1006E0000F900BBE0F900FBE0F901F9018951F928A
:1006F0000F920FB60F920BB60F9211242F933F93C8
:100700004F935F936F937F938F939F93AF93BF9319
:10071000EF93FF9389E19CE0909389008093880098
:1007200080917D00846080937D0080915A028823AF
:10073000E9F080915D0290915E02A0915F02B0911C
:1007400060020197A109B10980935D0290935E0256
:10075000A0935F02B09360020097A105B10511F468
:100760000E9474018BB390E489278BBBFF91EF91BA
:10077000BF91AF919F918F917F916F915F914F91B9
:100780003F912F910F900BBE0F900FBE0F901F90B7
:10079000189584E192E061E070E040E150E00E9451
:1007A000ED0984E292E061E170E040E150E00E94F6
:1007B000ED0984E392E061E270E040E150E00E94E4
:1007C000ED0981E390E00E94FD096093540270936B
:1007D0005502809356029093570284E492E061E4BC
:1007E00070E048E050E00E94ED0980915402909141
:1007F0005502A0915602B091570280935D029093EA
:100800005E02A0935F02B093600280E00895C899F1
:1008100072C084E192E061E070E040E150E00E944B
:10082000030A84E292E061E170E040E150E00E945E
:10083000030A84E392E061E270E040E150E00E944C
:10084000030A4091540250915502609156027091F2
:10085000570281E390E00E941A0A81E00E94D504C9
:100860008AE791E00E943F058CE492E068E00E94F4
:10087000E8068823C9F38CE492E064E472E048E07F
:100880000E946700882381F08CE492E064E472E0C7
:1008900048E00E94790081E00E94D50487E891E059
:1008A0000E943F0580E01EC084E492E061E470E0B5
:1008B00048E050E00E94030A81E00E94D50487E9E5
:1008C00091E00E943F058FEF93E2A4EF81509040AA
:1008D000A040E1F700C0000081E00E94D5040E9422
:1008E000870081E0AFE3BCE91197F1F700C0000099
:1008F000882309F4B9CF08950E9424030E94A50417
:100900008CE00E94D50481E00E94D5040E94070477
:100910000E94C9038091130290E054E0880F991F50
:100920005A95E1F78D559E4F60E10E9471050E9436
:1009300099000E94A400FFCFAA9A8FE99FE0019737
:10094000F1F700C00000AA9808951F93A8988FEFB0
:1009500093ECA9E081509040A040E1F700C0000076
:1009600010E315BB90E19A95F1F70E949C04A0E179
:10097000AA95F1F715BBB0E1BA95F1F70E949C0476
:1009800080E18A95F1F715BB90E19A95F1F70E9405
:100990009C04A0E1AA95F1F780E285BBB0E1BA958D
:1009A000F1F70E949C041F910895DF93CF930F925B
:1009B000CDB7DEB725B3982F9F60206F922395BBEC
:1009C00090E19A95F1F7A898E0E1EA95F1F789832B
:1009D0000E949C04EFECF7E03197F1F700C00000B3
:1009E00095B389818295807F9F70892B85BBF0E1CB
:1009F000FA95F1F7A89880E18A95F1F70E949C0496
:100A0000EFECF7E03197F1F700C000000F90CF91C5
:100A1000DF910895DF93CF930F92CDB7DEB725B363
:100A2000982F9F60206F922395BB90E19A95F1F7E4
:100A3000A89AE0E1EA95F1F789830E949C04EFEC23
:100A4000F7E03197F1F700C0000095B389818295F6
:100A5000807F9F70892B85BBF0E1FA95F1F7A89A0A
:100A600080E18A95F1F70E949C04EFECF7E0319762
:100A7000F1F700C000000F90CF91DF910895CF9261
:100A8000DF92FF920F931F93DF93CF930F92CDB717
:100A9000DEB7F82E0F2D192FCC24DD240DC0F80160
:100AA00081918F0199830E940A05F0E1FA95F1F78F
:100AB0000894C11CD11C9981AF2DB92FFD01019063
:100AC0000020E9F73197EA1BFB0BCE16DF0638F35F
:100AD0000F90CF91DF911F910F91FF90DF90CF90FA
:100AE0000895EF92FF920F931F93CF93DF93082FF8
:100AF000192FC0E0D0E0E62EFF2409C0F801819153
:100B00008F010E940A05F0E1FA95F1F72196CE15C2
:100B1000DF05A4F3DF91CF911F910F91FF90EF902C
:100B200008954F925F926F927F928F929F92AF92B1
:100B3000BF92CF92DF92EF92FF921F93DF93CF93FA
:100B4000CDB7DEB7A8970FB6F894DEBF0FBECDBF06
:100B50006B017C0197FF0BC08DE20E940A05F094A7
:100B6000E094D094C094C11CD11CE11CF11C10E095
:100B70002E010894411C511C2AE0622E712C812CFC
:100B8000912C1F5FA12EBB24AA0CBB1CA40CB51C6E
:100B9000C701B601A40193010E943607F5017183D4
:100BA000608369017A01C114D104E104F10449F7B9
:100BB0000CC0E12FF0E0EE0FFF1FEC0DFD1D80815A
:100BC000805D0E940A05115004C06E010894C11C8A
:100BD000D11C112371F7A8960FB6F894DEBF0FBE93
:100BE000CDBFCF91DF911F91FF90EF90DF90CF901D
:100BF000BF90AF909F908F907F906F905F904F903D
:100C000008951F936AE070E00E942307182F862F33
:100C1000805D0E940A05812F805D0E940A051F9158
:100C2000089580E80E94D5040895CF93DF93C8E229
:100C3000D0E080EC0E94D5042197D9F7DF91CF91C5
:100C400008958130910529F4AD9A85B3806284BB03
:100C50000895009711F4AD98A5980895F89410920E
:100C600076022DC0982F9795992797958695992369
:100C7000A1F4B898C09890E59A95F1F7B89AC09801
:100C8000EFE8F1E03197F1F700C00000B89AC09AA0
:100C9000FAE0FA95F1F700C00DC0B898C09890E559
:100CA0009A95F1F7B89AC09AEFE8F1E03197F1F729
:100CB00000C00000909176029F5F90937602909121
:100CC0007602983078F278940895EF92FF920F931D
:100CD0001F93CF93DF93282F392FD90180E090E025
:100CE00070E041E050E012C00191002341F0EA01C0
:100CF000022E02C0CC0FDD1F0A94E2F71C2B2F5FDF
:100D00003F4F2830310581F71D93019686179707CD
:100D100064F4FC0123E0EE0FFF1F2A95E1F7E95888
:100D2000FD4F20E030E010E0DFCF81E0DF91CF9198
:100D30001F910F91FF90EF900895F8941092760212
:100D400041E03DC01092750231C0B89AC09830E1C0
:100D50003A95F1F7C098B898E0E2EA95F1F730E0FB
:100D6000E0917602B09B0CC0F0E073E0EE0FFF1F45
:100D70007A95E1F7E20FF31FE958FD4F40830BC06E
:100D8000F0E053E0EE0FFF1F5A95E1F7E20FF31F7B
:100D9000E958FD4F1082EFEDF1E03197F1F700C017
:100DA0000000209175022F5F20937502209175023B
:100DB000283058F2209176022F5F209376022091FE
:100DC0007602283008F4BECF78940E946506089514
:100DD0000F931F93DF93CF930F92CDB7DEB78C01A4
:100DE000B89AC098F8948FE099E00197F1F700C0A5
:100DF0000000B898E7E1F1E03197F1F700C000009A
:100E0000B09B09C087E696E00197F1F700C00000AB
:100E1000789480E012C0E7E6F6E03197F1F700C081
:100E20000000789483E390E069830E942E06C80155
:100E3000698170E00E949D0681E00F90CF91DF9163
:100E40001F910F91089597FB092E07260AD077FD71
:100E500004D027D006D000201AF4709561957F4FFA
:100E60000895F6F7909581959F4F089597FB092E69
:100E700005260ED057FD04D028D00AD0001C38F427
:100E800050954095309521953F4F4F4F5F4F0895B6
:100E9000F6F790958095709561957F4F8F4F9F4F96
:100EA0000895AA1BBB1B51E107C0AA1FBB1FA617B1
:100EB000B70710F0A61BB70B881F991F5A95A9F703
:100EC00080959095BC01CD010895A1E21A2EAA1B30
:100ED000BB1BFD010DC0AA1FBB1FEE1FFF1FA217EA
:100EE000B307E407F50720F0A21BB30BE40BF50BE7
:100EF000661F771F881F991F1A9469F76095709570
:100F0000809590959B01AC01BD01CF010895FC0136
:100F100088279927E89421912032E9F3293010F0AD
:100F20002E30C8F32B3241F02D3239F4689404C0CE
:100F30000E94A507820F911D219120532A30C0F3F2
:100F40001EF4909581959F4F08957AE0979F902D7C
:100F5000879F802D910D112408950F931F93DF9388
:100F6000CF93CDB7DEB72E970FB6F894DEBF0FBE86
:100F7000CDBF0D891E8986E08C831A8309838FEF8C
:100F80009FE79E838D839E01275E3F4FCE01019692
:100F90006F89788DA9010E94DD07EF81F885E00F48
:100FA000F11F10822E960FB6F894DEBF0FBECDBF94
:100FB000CF91DF911F910F9108952F923F924F9201
:100FC0005F926F927F928F929F92AF92BF92CF92D9
:100FD000DF92EF92FF920F931F93DF93CF93CDB7E2
:100FE000DEB72C970FB6F894DEBF0FBECDBF6C01F5
:100FF0001B018A01FC0117821682838181FFD1C106
:101000002E010894411C511CF6019381F10193FDBE
:10101000859193FF81911F01882309F4BEC1853218
:1010200039F493FD859193FF81911F01853229F455
:1010300090E0B6010E943D0AE7CFEE24FF2420E0B5
:101040002032B0F48B3269F08C3228F4803251F0C7
:10105000833271F40BC08D3239F0803349F4216052
:101060002CC02260246029C0286027C0206125C0D0
:1010700027FD2CC0382F30533A3098F426FF08C093
:101080008E2D880FE82EEE0CEE0CE80EE30E15C048
:101090008F2D880FF82EFF0CFF0CF80EF30E206238
:1010A0000CC08E3221F426FD78C1206406C08C3637
:1010B00011F4206802C0883649F4F10193FD85914E
:1010C00093FF81911F01882309F0BACF982F95547F
:1010D000933018F09052933028F40C5F1F4FFFE3C9
:1010E000F9830DC0833631F0833771F0833509F011
:1010F00060C022C0F801808189830E5F1F4F4201CA
:1011000071E0A72EB12C16C062E0662E712C600E25
:10111000711EF8018080918026FF03C06E2D70E063
:1011200002C06FEF7FEFC4012C870E94320A5C017E
:1011300083012C852F7717C052E0652E712C600E2D
:10114000711EF8018080918026FF03C06E2D70E033
:1011500002C06FEF7FEFC4012C870E94270A5C0159
:101160002C852068830123FD20C008C080E290E028
:10117000B6012C870E943D0AFA942C858F2D90E0B1
:10118000A816B90698F311C0F40127FD859127FF31
:1011900081914F0190E0B6012C870E943D0A2C8579
:1011A000F110FA940894A108B108A114B10461F7F0
:1011B000F1C0843611F0893649F527FF08C0F801DF
:1011C00060817181828193810C5F1F4F09C0F8019A
:1011D00060817181882777FD8095982F0E5F1F4F62
:1011E0004FE6B42EB22297FF09C090958095709576
:1011F00061957F4F8F4F9F4FF0E8BF2AA2012AE0F1
:1012000030E00E94690A782E741845C0853731F4A1
:101210003FEEB32EB2222AE030E025C099EFB92E7E
:10122000B2228F36C1F0803720F4883509F0B5C07E
:101230000DC0803721F0883709F0AFC002C020E12F
:10124000B22AB4FE0BC084E0B82A08C0B4FE09C0BC
:10125000E6E0BE2A06C028E030E005C020E130E02C
:1012600002C020E132E0B7FE08C0F8016081718160
:10127000828193810C5F1F4F07C0F80160817181EB
:1012800080E090E00E5F1F4FA2010E94690A782E55
:101290007418FFE7BF22B6FE0BC02EEFB2227E14F9
:1012A00038F4B4FE07C0B2FC05C08FEEB82202C00D
:1012B000A72C01C0AE2C8B2D90E0B4FE0DC0FE011A
:1012C000E70DF11D2081203319F4E9EEBE2209C09B
:1012D000A394B2FE06C004C086789070009709F00F
:1012E000A3948B2C9924B3FC14C0B0FE0FC0AF1490
:1012F00028F4E72CEF0CEA18AF2C08C0E72C06C046
:1013000080E290E0B6010E943D0AA394AF14C0F3BE
:1013100004C0AF1410F4FA1801C0FF2484FE0FC0FB
:1013200080E390E0B6010E943D0A82FE1FC081FE6C
:1013300003C088E590E010C088E790E00DC0C401CC
:1013400086789070009791F081FC02C080E201C025
:101350008BE2B7FC8DE290E0B6010E943D0A06C028
:1013600080E390E0B6010E943D0AEA947E14C0F347
:101370007A94F201E70DF11D808190E0B6010E94A0
:101380003D0A7720A9F706C080E290E0B6010E94EE
:101390003D0AFA94FF20C1F737CEF6012681378146
:1013A00002C02FEF3FEFC9012C960FB6F894DEBFB5
:1013B0000FBECDBFCF91DF911F910F91FF90EF90A6
:1013C000DF90CF90BF90AF909F908F907F906F9065
:1013D0005F904F903F902F900895DC01CB01FC016E
:1013E000E199FECF06C0FFBBEEBBE09A31960DB28D
:1013F0000D9241505040B8F70895A6E1B0E044E0A6
:1014000050E00C94EF09DC01CB0103C02D910E9448
:101410000E0A41505040D0F70895262FE199FECF93
:101420009FBB8EBB2DBB0FB6F894E29AE19A0FBE1C
:1014300001960895242F0E940E0A252F0E940E0A5D
:101440000C94220A0E940D0A272F0C940E0AFC010C
:101450000590615070400110D8F7809590958E0FDF
:101460009F1F0895FC016150704001900110D8F752
:10147000809590958E0F9F1F08950F931F93CF9384
:10148000DF938C01EB018B8181FF1BC082FF0DC0BC
:101490002E813F818C819D812817390764F4E88172
:1014A000F9810193F983E88306C0E885F985802FE7
:1014B0000995009731F48E819F8101969F838E83D9
:1014C00002C00FEF1FEFC801DF91CF911F910F9165
:1014D0000895FA01AA27283051F1203181F1E894CA
:1014E0006F936E7F6E5F7F4F8F4F9F4FAF4FB1E017
:1014F0003ED0B4E03CD0670F781F891F9A1FA11D12
:10150000680F791F8A1F911DA11D6A0F711D811D12
:10151000911DA11D20D009F468943F912AE0269FD7
:1015200011243019305D3193DEF6CF010895462F36
:101530004770405D4193B3E00FD0C9F7F6CF462F17
:101540004F70405D4A3318F0495D31FD4052419380
:1015500002D0A9F7EACFB4E0A6959795879577953D
:101560006795BA95C9F700976105710508959B01C4
:10157000AC010A2E06945795479537952795BA954D
:10158000C9F7620F731F841F951FA01D0895F8945B
:02159000FFCF8B
:1015920025640020202047414D45204F56455221C9
:1015A2002020200020424F4F4D20424F4F4D2042DD
:1015B2004F4F4D200057726F6E6720436F64652155
:1015C200202020202000436F6465204F4B212020E3
:1015D2002020202020200057726F6E6720506173F8
:1015E20073776F726421200050617373776F726436
:1015F200204F4B21202020200054696D65722073FA
:101602006574206F6B2120202000505554205448CF
:1016120045204B4559210057524F4E47204B4559C3
:10162200205245414421004B4559205245414445F1
:10163200442100456E7465722053544F5020636FED
:10164200646520456E746572205354415254206380
:101652006F6465456E7465722041646D696E2063C6
:101662006F64655345542041646D696E20636F64F5
:1016720065202053455420535441525420636F64D3
:101682006520205345542053544F5020636F6465A6
:101692002020205345542054696D6572202020205B
:1016A200202020013333332020202020202020201E
:1016B20020202020333533202020202020202020ED
:1016C20020202020353335202020202020202020DB
:1016D200202020202B2B2B2B2B2B2B2B2D2D2D2D7C
:0816E2002D2D2D2D100E00002E
:00000001FF
