:100000000C9446000C9465000C9465000C946500FB
:100010000C9465000C9465000C9465000C946500CC
:100020000C9465000C9465000C9465000C946500BC
:100030000C9465000C9465000C9407040C94650006
:100040000C9465000C9465000C9465000C9465009C
:100050000C9465000C9465000C9465000C9465008C
:100060000C9465000C9465000C9465000C9465007C
:100070000C9465000C9453040C9465000C9465007A
:100080000C9465000C9465000C94650011241FBE4F
:10009000CFEFD0E1DEBFCDBF12E0A0E0B1E0E6EAF5
:1000A000F4E100E00BBF02C007900D92A032B1074F
:1000B000D9F712E0A0E2B2E001C01D92A039B10769
:1000C000E1F70E940A050C94510A0C940000F89480
:1000D00010923F022DC0982F979599279795869556
:1000E0009923A1F4B898C09890E59A95F1F7B89A39
:1000F000C098EFE8F1E03197F1F700C00000B89A3E
:10010000C09AFAE0FA95F1F700C00DC0B898C0980F
:1001100090E59A95F1F7B89AC09AEFE8F1E0319737
:10012000F1F700C0000090913F029F5F90933F0263
:1001300090913F02983078F278940895CF92DF92B0
:10014000EF92FF920F931F93CF93DF9381E00E9472
:1001500054050EE212E07801C0E0D0E091E0C92E33
:10016000D12C1BC09191992341F0A601022E02C00F
:10017000440F551F0A94E2F7842B2F5F3F4F28301E
:10018000310581F7D7018D937D0190E061E00E94F8
:10019000F0052196C830D10561F0FE0183E0EE0F35
:1001A000FF1F8A95E1F7E05CFD4F20E030E080E042
:1001B000D9CF80912402882361F4E6E3F2E09191A3
:1001C000D8018D918D01981731F4B2E0EE33FB0721
:1001D000B1F781E001C080E0DF91CF911F910F91D5
:1001E000FF90EF90DF90CF900895F89410923F0227
:1001F00021E03DC010923E0231C0B89AC09890E113
:100200009A95F1F7C098B89890E29A95F1F790E036
:10021000E0913F02B09B0CC0F0E043E0EE0FFF1F07
:100220004A95E1F7E80FF91FE05CFD4F20830BC012
:10023000F0E033E0EE0FFF1F3A95E1F7E80FF91F0A
:10024000E05CFD4F10828FED91E00197F1F700C067
:10025000000080913E028F5F80933E0280913E02BB
:10026000883058F280913F028F5F80933F028091E7
:100270003F02883008F4BECF78940E949E00089513
:10028000B89AC098F8948FE099E00197F1F700C010
:100290000000B89887E191E00197F1F700C00000F5
:1002A000B09B08C087E696E00197F1F700C0000018
:1002B0007894089587E696E00197F1F700C0000072
:1002C000789483E390E00E9467000E94F50008950F
:1002D000262F372FD901E82FF92F04C021919D91A6
:1002E000291731F49E2F981B9417C0F380E00895CE
:1002F00081E00895282F392FD901862F972FFC01EF
:1003000080E003C09D9191938F5F8417D8F3089587
:1003100084E08EBD89E19CE09DBD8CBD87B7846083
:1003200087BF7894089584E080938A0089E19CE0F7
:100330009093890080938800EDE7F0E080818460ED
:10034000808378940895C99908C080912D028823EC
:1003500021F010922D0282E00895CA9908C0809180
:100360002D02882321F010922D0283E00895CB996D
:1003700008C080912D02882321F010922D0284E084
:100380000895CC9908C080912D02882321F0109205
:100390002D0285E0089569B389B349B329B390E08C
:1003A0008470907070E062707070862B972B50E0B4
:1003B00048705070842B952B30E020713070822B68
:1003C000932B8E31910529F481E080932D0280E0FA
:1003D000089580E008950F931F93DF93CF93CDB7D7
:1003E000DEB760970FB6F894DEBF0FBECDBF2DB756
:1003F0003EB7285030400FB6F8943EBF0FBE2DBF19
:10040000EDB7FEB731968E010F5F1F4FADB7BEB788
:1004100012961C930E93119720E031E033832283D0
:1004200064837583868397830E9437072DB73EB711
:10043000285F3F4F0FB6F8943EBF0FBE2DBF80E838
:100440000E945405C8010E94BE0580E060960FB668
:10045000F894DEBF0FBECDBFCF91DF911F910F91FA
:100460000895109221021092220281E00E94540508
:1004700083E091E060E10E94F00580911B02909181
:100480001C02A0911D02B0911E0280932502909340
:100490002602A0932702B0932802DE9A08951092B4
:1004A0002202DE9A0895CF93DF93109222021092D7
:1004B000210280911B0290911C02A0911D02B0911B
:1004C0001E028093250290932602A0932702B093E8
:1004D000280281E00E945405C4E1D1E0CE010E94CF
:1004E000BE0580EC0E945405CE010E94BE05DE9A36
:1004F000DF91CF9108950E944001C89908C0809172
:100500002C02882321F010922C0281E00895C89BD0
:1005100005C081E080932C0280E0089580E008957A
:10052000813001F580912102882329F00E94310257
:100530001092230215C01092230282E08093EA01F8
:1005400081E00E9454058091EA0190E054E0880F18
:10055000991F5A95E1F786589E4F60E10E94F00579
:1005600081E0089580E008951F93823009F46BC004
:10057000843031F190912B02903119F49FE09093E7
:100580002B0290912B02E92FF0E0E058FD4F805DA7
:100590008083892F8F5F80932B0290E206C0E82F23
:1005A000F0E0E058FD4F90838F5F8031C0F380EC26
:1005B0000E94540580E892E060E10E94F0051DC1B0
:1005C000809122028823D9F01092EA0181E00E94F2
:1005D00054058091EA0190E074E0880F991F7A95A4
:1005E000E1F786589E4F60E10E94F005E0E8F2E0F6
:1005F00080E2819392E0E039F907D9F720C0809139
:100600002002882349F08091EA018F5F8093EA01FC
:10061000873029F483E001C081E08093EA0181E022
:100620000E9454058091EA0190E064E0880F991FD0
:100630006A95E1F786589E4F60E10E94F005E0E878
:10064000F2E080E2D3C01091EA01133009F45AC0FD
:10065000143028F41130F9F01230C0F509C015300B
:1006600009F477C0153008F465C0163041F789C029
:1006700080E892E06BE072E040E10E94680188232C
:1006800099F480EC0E94540586E391E00E94BE0537
:100690000E944F02D4CF80E892E06BEF71E040E11E
:1006A0000E946801882331F080EC0E94540585E2A5
:1006B00091E01AC080EC0E94540586E391E00E940C
:1006C000BE051093220210932102B9CF80E892E078
:1006D0006BEE71E040E10E946801882341F080ECFC
:1006E0000E94540587E491E00E94BE05A8CF80ECEB
:1006F0000E94540588E591E00E94BE0581E0809348
:1007000020029DCF80E892E06BEE71E040E10E9414
:100710007A0181E080932A028BEE91E061E070E043
:1007200040E150E00E948D0980EC0E94540588E56C
:1007300091E0DACF80E892E06BEF71E040E10E9457
:100740007A0181E180932A028BEF91E061E170E010
:100750000EC080E892E06BE072E040E10E947A0116
:1007600081E280932A028BE092E061E270E040E156
:1007700050E00E948D0980EC0E94540586E391E0D0
:10078000B3CFE0E8F2E08081803209F41082319644
:1007900082E0E039F807B9F7CF0140970E941107CE
:1007A000AC01662757FD6095762F40931B0250934E
:1007B0001C0260931D0270931E0240932502509309
:1007C0002602609327027093280281E380932A0215
:1007D00081E390E00E94A40980EC0E94540589E620
:1007E00091E00E94BE051092200229CF819392E0F1
:1007F000E039F907D9F710922B0280E01F91089594
:100800001BBA80EC8ABB15BA87EF84BB08951F9290
:100810000F920FB60F920BB60F9211242F933F93A6
:100820004F935F936F937F938F939F93AF93BF93F8
:10083000EF93FF938CE997EE9DBD8CBD84E08EBD58
:1008400087B7846087BF60912502709126028091EE
:100850002702909128020E94EB01809123028823B5
:1008600029F40E947B028093230202C00E9490021E
:100870000E94A30180932902882311F00E94B402F0
:10088000FF91EF91BF91AF919F918F917F916F9168
:100890005F914F913F912F910F900BBE0F900FBE24
:1008A0000F901F9018951F920F920FB60F920BB6D4
:1008B0000F9211242F933F934F935F936F937F93E6
:1008C0008F939F93AF93BF93EF93FF9389E19CE046
:1008D000909389008093880080917D00846080934C
:1008E0007D00809122028823E9F080912502909179
:1008F0002602A0912702B09128020197A109B1090F
:100900008093250290932602A0932702B093280299
:100910000097A105B10511F40E9453028BB390E436
:1009200089278BBBFF91EF91BF91AF919F918F91E1
:100930007F916F915F914F913F912F910F900BBEDF
:100940000F900FBE0F901F9018958BEE91E061E015
:1009500070E040E150E00E9477098BEF91E061E1A7
:1009600070E040E150E00E9477098BE092E061E2A4
:1009700070E040E150E00E94770981E390E00E943E
:10098000870960931B0270931C0280931D02909351
:100990001E0286E392E061E470E048E050E00E94CD
:1009A000770980911B0290911C02A0911D02B091C9
:1009B0001E028093250290932602A0932702B093F3
:1009C000280280E00895C89924C08BEE91E061E090
:1009D00070E040E150E00E948D098BEF91E061E111
:1009E00070E040E150E00E948D098BE092E061E20E
:1009F00070E040E150E00E948D0940911B0250914F
:100A00001C0260911D0270911E0281E390E00E9421
:100A1000A40908950E9400040E94E3040E94A50412
:100A20000E9424058CE00E94540581E00E94540538
:100A30000E944001FDCFAA9A8FE99FE00197F1F74C
:100A400000C00000AA9808951F93A8988FEF93EC18
:100A5000A9E081509040A040E1F700C0000010E301
:100A600015BB90E19A95F1F70E941B05A0E1AA95AC
:100A7000F1F715BBB0E1BA95F1F70E941B0580E1D3
:100A80008A95F1F715BB90E19A95F1F70E941B0545
:100A9000A0E1AA95F1F780E285BBB0E1BA95F1F744
:100AA0000E941B051F910895DF93CF930F92CDB73E
:100AB000DEB725B3982F9F60206F922395BB90E1FE
:100AC0009A95F1F7A898E0E1EA95F1F789830E94F9
:100AD0001B05EFECF7E03197F1F700C0000095B38C
:100AE00089818295807F9F70892B85BBF0E1FA9583
:100AF000F1F7A89880E18A95F1F70E941B05EFECC9
:100B0000F7E03197F1F700C000000F90CF91DF912F
:100B10000895DF93CF930F92CDB7DEB725B3982F0B
:100B20009F60206F922395BB90E19A95F1F7A89A68
:100B3000E0E1EA95F1F789830E941B05EFECF7E00D
:100B40003197F1F700C0000095B389818295807FCD
:100B50009F70892B85BBF0E1FA95F1F7A89A80E1A7
:100B60008A95F1F70E941B05EFECF7E03197F1F75A
:100B700000C000000F90CF91DF910895CF92DF92D7
:100B8000FF920F931F93DF93CF930F92CDB7DEB7F2
:100B9000F82E0F2D192FCC24DD240DC0F8018191E2
:100BA0008F0199830E948905F0E1FA95F1F7089485
:100BB000C11CD11C9981AF2DB92FFD0101900020DE
:100BC000E9F73197EA1BFB0BCE16DF0638F30F90DF
:100BD000CF91DF911F910F91FF90DF90CF900895FB
:100BE000EF92FF920F931F93CF93DF93082F192F4C
:100BF000C0E0D0E0E62EFF2409C0F80181918F010A
:100C00000E948905F0E1FA95F1F72196CE15DF05EE
:100C1000A4F3DF91CF911F910F91FF90EF90089572
:100C20004F925F926F927F928F929F92AF92BF92FC
:100C3000CF92DF92EF92FF921F93DF93CF93CDB7C6
:100C4000DEB7A8970FB6F894DEBF0FBECDBF6B011D
:100C50007C0197FF0BC08DE20E948905F094E0941F
:100C6000D094C094C11CD11CE11CF11C10E02E01D9
:100C70000894411C511C2AE0622E712C812C912C6D
:100C80001F5FA12EBB24AA0CBB1CA40CB51CC70162
:100C9000B601A40193010E94C006F501718360832F
:100CA00069017A01C114D104E104F10449F70CC0CF
:100CB000E12FF0E0EE0FFF1FEC0DFD1D8081805D48
:100CC0000E948905115004C06E010894C11CD11CFA
:100CD000112371F7A8960FB6F894DEBF0FBECDBFF3
:100CE000CF91DF911F91FF90EF90DF90CF90BF9059
:100CF000AF909F908F907F906F905F904F900895EE
:100D00001F936AE070E00E94AD06182F862F805D69
:100D10000E948905812F805D0E9489051F91089599
:100D200080E80E9454050895CF93DF93C8E2D0E095
:100D300080EC0E9454052197D9F7DF91CF91089557
:100D40008130910529F4AD9A85B3806284BB089502
:100D5000009711F4AD98A598089597FB092E0726E2
:100D60000AD077FD04D027D006D000201AF4709561
:100D700061957F4F0895F6F7909581959F4F08955F
:100D800097FB092E05260ED057FD04D028D00AD097
:100D9000001C38F450954095309521953F4F4F4FAA
:100DA0005F4F0895F6F790958095709561957F4F08
:100DB0008F4F9F4F0895AA1BBB1B51E107C0AA1F6D
:100DC000BB1FA617B70710F0A61BB70B881F991FEC
:100DD0005A95A9F780959095BC01CD010895A1E29F
:100DE0001A2EAA1BBB1BFD010DC0AA1FBB1FEE1FA5
:100DF000FF1FA217B307E407F50720F0A21BB30BF0
:100E0000E40BF50B661F771F881F991F1A9469F76B
:100E100060957095809590959B01AC01BD01CF01C7
:100E20000895FC0188279927E89421912032E9F35D
:100E3000293010F02E30C8F32B3241F02D3239F426
:100E4000689404C00E942F07820F911D21912053A6
:100E50002A30C0F31EF4909581959F4F08957AE053
:100E6000979F902D879F802D910D112408950F93AA
:100E70001F93DF93CF93CDB7DEB72E970FB6F894BD
:100E8000DEBF0FBECDBF0D891E8986E08C831A831D
:100E900009838FEF9FE79E838D839E01275E3F4FDF
:100EA000CE0101966F89788DA9010E946707EF81B5
:100EB000F885E00FF11F10822E960FB6F894DEBF72
:100EC0000FBECDBFCF91DF911F910F9108952F924B
:100ED0003F924F925F926F927F928F929F92AF92CA
:100EE000BF92CF92DF92EF92FF920F931F93DF9307
:100EF000CF93CDB7DEB72C970FB6F894DEBF0FBEF9
:100F0000CDBF6C011B018A01FC011782168283810F
:100F100081FFD1C12E010894411C511CF60193811F
:100F2000F10193FD859193FF81911F01882309F4BD
:100F3000BEC1853239F493FD859193FF81911F01E4
:100F4000853229F490E0B6010E94C709E7CFEE246C
:100F5000FF2420E02032B0F48B3269F08C3228F488
:100F6000803251F0833271F40BC08D3239F080330E
:100F700049F421602CC02260246029C0286027C069
:100F8000206125C027FD2CC0382F30533A3098F40B
:100F900026FF08C08E2D880FE82EEE0CEE0CE80E12
:100FA000E30E15C08F2D880FF82EFF0CFF0CF80EE6
:100FB000F30E20620CC08E3221F426FD78C120642D
:100FC00006C08C3611F4206802C0883649F4F1015D
:100FD00093FD859193FF81911F01882309F0BACF7A
:100FE000982F9554933018F09052933028F40C5F5A
:100FF0001F4FFFE3F9830DC0833631F0833771F063
:10100000833509F060C022C0F801808189830E5FBA
:101010001F4F420171E0A72EB12C16C062E0662E70
:10102000712C600E711EF8018080918026FF03C034
:101030006E2D70E002C06FEF7FEFC4012C870E941D
:10104000BC095C0183012C852F7717C052E0652E07
:10105000712C600E711EF8018080918026FF03C004
:101060006E2D70E002C06FEF7FEFC4012C870E94ED
:10107000B1095C012C852068830123FD20C008C0D4
:1010800080E290E0B6012C870E94C709FA942C8573
:101090008F2D90E0A816B90698F311C0F40127FD32
:1010A000859127FF81914F0190E0B6012C870E9426
:1010B000C7092C85F110FA940894A108B108A1146D
:1010C000B10461F7F1C0843611F0893649F527FF84
:1010D00008C0F80160817181828193810C5F1F4F8C
:1010E00009C0F80160817181882777FD8095982F6C
:1010F0000E5F1F4F4FE6B42EB22297FF09C09095A6
:101100008095709561957F4F8F4F9F4FF0E8BF2A74
:10111000A2012AE030E00E94F309782E741845C03D
:10112000853731F43FEEB32EB2222AE030E025C0FD
:1011300099EFB92EB2228F36C1F0803720F488356E
:1011400009F0B5C00DC0803721F0883709F0AFC075
:1011500002C020E1B22AB4FE0BC084E0B82A08C065
:10116000B4FE09C0E6E0BE2A06C028E030E005C0B3
:1011700020E130E002C020E132E0B7FE08C0F80113
:1011800060817181828193810C5F1F4F07C0F801DC
:101190006081718180E090E00E5F1F4FA2010E948C
:1011A000F309782E7418FFE7BF22B6FE0BC02EEFAE
:1011B000B2227E1438F4B4FE07C0B2FC05C08FEE34
:1011C000B82202C0A72C01C0AE2C8B2D90E0B4FE3B
:1011D0000DC0FE01E70DF11D2081203319F4E9EE69
:1011E000BE2209C0A394B2FE06C004C086789070E7
:1011F000009709F0A3948B2C9924B3FC14C0B0FE83
:101200000FC0AF1428F4E72CEF0CEA18AF2C08C07D
:10121000E72C06C080E290E0B6010E94C709A394C3
:10122000AF14C0F304C0AF1410F4FA1801C0FF24C7
:1012300084FE0FC080E390E0B6010E94C70982FEE1
:101240001FC081FE03C088E590E010C088E790E0F1
:101250000DC0C40186789070009791F081FC02C0A7
:1012600080E201C08BE2B7FC8DE290E0B6010E9403
:10127000C70906C080E390E0B6010E94C709EA945E
:101280007E14C0F37A94F201E70DF11D808190E0A5
:10129000B6010E94C7097720A9F706C080E290E056
:1012A000B6010E94C709FA94FF20C1F737CEF601B4
:1012B0002681378102C02FEF3FEFC9012C960FB670
:1012C000F894DEBF0FBECDBFCF91DF911F910F917C
:1012D000FF90EF90DF90CF90BF90AF909F908F9056
:1012E0007F906F905F904F903F902F900895DC011A
:1012F000CB01FC01E199FECF06C0FFBBEEBBE09A3B
:1013000031960DB20D9241505040B8F70895A6E1C4
:10131000B0E044E050E00C947909DC01CB0103C05B
:101320002D910E94980941505040D0F70895262FE2
:10133000E199FECF9FBB8EBB2DBB0FB6F894E29A0E
:10134000E19A0FBE01960895242F0E949809252F37
:101350000E9498090C94AC090E949709272F0C94BD
:101360009809FC010590615070400110D8F78095F4
:1013700090958E0F9F1F0895FC0161507040019061
:101380000110D8F7809590958E0F9F1F08950F93A9
:101390001F93CF93DF938C01EB018B8181FF1BC0E7
:1013A00082FF0DC02E813F818C819D8128173907D6
:1013B00064F4E881F9810193F983E88306C0E88544
:1013C000F985802F0995009731F48E819F810196D0
:1013D0009F838E8302C00FEF1FEFC801DF91CF9173
:1013E0001F910F910895FA01AA27283051F1203159
:1013F00081F1E8946F936E7F6E5F7F4F8F4F9F4FA9
:10140000AF4FB1E03ED0B4E03CD0670F781F891FEA
:101410009A1FA11D680F791F8A1F911DA11D6A0FB8
:10142000711D811D911DA11D20D009F468943F916B
:101430002AE0269F11243019305D3193DEF6CF016A
:101440000895462F4770405D4193B3E00FD0C9F730
:10145000F6CF462F4F70405D4A3318F0495D31FD9D
:101460004052419302D0A9F7EACFB4E0A6959795F0
:10147000879577956795BA95C9F7009761057105C6
:1014800008959B01AC010A2E069457954795379510
:101490002795BA95C9F7620F731F841F951FA01D6A
:0614A0000895F894FFCF4F
:1014A60025640020202047414D45204F56455221B6
:1014B6002020200020424F4F4D20424F4F4D2042CA
:1014C6004F4F4D200057726F6E6720436F64652142
:1014D600202020202000436F6465204F4B212020D0
:1014E6002020202020200057726F6E6720506173E5
:1014F60073776F726421200050617373776F726423
:10150600204F4B21202020200054696D65722073E6
:101516006574206F6B2120202000456E7465722053
:1015260053544F5020636F646520456E7465722076
:10153600535441525420636F6465456E746572203E
:1015460041646D696E20636F646553455420416440
:101556006D696E20636F6465202053455420535493
:1015660041525420636F64652020534554205354E0
:101576004F5020636F6465202020534554205469E2
:101586006D65722020202020202001333333202057
:10159600202020202020202020202033353320200A
:1015A60020202020202020202020203533352020F8
:1015B6002020202020202020202020100E000000A7
:00000001FF
