:100000000C9446000C9463000C9463000C94630001
:100010000C9463000C9463000C9463000C946300D4
:100020000C9463000C9463000C9463000C946300C4
:100030000C9463000C9463000C94F2020C94630023
:100040000C943B030C9463000C9463000C946300C9
:100050000C9463000C9463000C9463000C94630094
:100060000C9463000C9463000C9463000C94630084
:100070000C9463000C9463000C9463000C94630074
:100080000C9463000C9463000C94630011241FBE55
:10009000CFEFD0E1DEBFCDBF12E0A0E0B1E0E0E9FC
:1000A000F0E102C005900D92A237B107D9F712E036
:1000B000A2E7B2E001C01D92A23DB107E1F70E94A4
:1000C000B2040C9446080C940000262F372FD90157
:1000D000E82FF92F04C021919D91291731F49E2F0B
:1000E000981B9417C0F380E0089581E00895282FAD
:1000F000392FD901862F972FFC0180E003C09D91F5
:1001000091938F5F8417D8F308958FEF8093460201
:1001100080934702809348028093490280934A0269
:1001200080934B0280934C0280934D0208950E946D
:100130003607882339F090915602992339F01092AE
:100140005602089591E090935602089580E0089534
:100150008A3030F4E82FF0E0E95AFD4F808101C089
:1001600080E0611180680895EF92FF920F931F93D2
:10017000CF93DF930AE812E0C0E0D0E081E0E82E00
:10018000F12CC7010C2E02C0880F991F0A94E2F7C8
:100190008BBBCE018170682FF80181918F010E9485
:1001A000A80083B9F6EAFA95F1F700C013B82196D2
:1001B000C730D10531F780E0DF91CF911F910F91CA
:1001C000FF90EF900895109273021092740281E0F4
:1001D0000E94070580E091E00E94610580914E0237
:1001E00090914F02A0915002B0915102809352021F
:1001F00090935302A0935402B09355028FEB97E271
:10020000A9E081509040A040E1F700C000000895AF
:1002100010927402C69A0895CF93DF9310927402DD
:100220001092730280914E0290914F02A091500261
:10023000B09151028093520290935302A0935402C2
:10024000B093550281E00E940705CEE0D1E0CE01D7
:100250000E94610580EC0E940705CE010E946105A5
:10026000C6988FE392E4AFE081509040A040E1F760
:1002700000C00000DF91CF91089586E492E068E02D
:100280000E94FC06882369F086E492E06EE372E047
:1002900048E00E946500882331F40E94850081E0D7
:1002A000089580E0089580E00895813001F58091FF
:1002B0007302882329F00E94E3001092750215C092
:1002C0001092750282E080930D0281E00E94070582
:1002D00080910D0290E024E0880F991F2A95E1F7A4
:1002E00083569E4F60E10E94920581E0089580E070
:1002F00008951F93982F9855923030F1909179027C
:10030000903119F49FE09093790290917902E92F4E
:10031000F0E0E658FD4F805D8083892F8F5F8093EA
:10032000790290E206C0E82FF0E0E658FD4F908396
:100330008F5F8031C0F380EC0E9407058AE792E06E
:1003400060E10E94920520C1893509F043C0809187
:1003500074028823D9F010920D0281E00E940705F3
:1003600080910D0290E044E0880F991F4A95E1F7D3
:1003700083569E4F60E10E949205EAE7F2E080E238
:10038000819392E0EA38F907D9F720C08091720290
:10039000882349F080910D028F5F80930D02873092
:1003A00029F483E001C081E080930D0281E00E9486
:1003B000070580910D0290E034E0880F991F3A956F
:1003C000E1F783569E4F60E10E949205EAE7F2E072
:1003D00080E2D3C010910D02133009F45AC01430DA
:1003E00028F41130F9F01230C0F509C0153009F4C5
:1003F00077C0153008F465C0163041F789C08AE728
:1004000092E06EE272E040E10E946500882399F478
:1004100080EC0E94070580E391E00E9461050E9444
:100420000801D4CF8AE792E06EE172E040E10E94D9
:100430006500882331F080EC0E9407058FE191E090
:100440001AC080EC0E94070580E391E00E946105DC
:100450001093740210937302B9CF8AE792E06EE0B2
:1004600072E040E10E946500882341F080EC0E9428
:10047000070581E491E00E946105A8CF80EC0E940D
:10048000070582E591E00E94610581E08093720298
:100490009DCF8AE792E06EE072E040E10E94770033
:1004A00081E0809378028EE092E061E070E040E1CC
:1004B00050E00E94220880EC0E94070582E591E04E
:1004C000DACF8AE792E06EE172E040E10E947700C5
:1004D00081E1809378028EE192E061E170E00EC0EC
:1004E0008AE792E06EE272E040E10E94770081E2EA
:1004F000809378028EE292E061E270E040E150E0A9
:100500000E94220880EC0E94070580E391E0B3CFAF
:10051000EAE7F2E08081803209F41082319682E0CD
:10052000EA38F807B9F7CF0140970E94E607AC0117
:10053000662757FD6095762F40934E0250934F02E9
:1005400060935002709351024093520250935302B1
:10055000609354027093550281E38093780281E3A3
:1005600090E00E94390880EC0E94070583E691E044
:100570000E9461051092720229CF819392E0EA38BD
:10058000F907D9F71092790280E01F9108951BBAFC
:100590008FE38ABB18BA80EC87BB15BA97EF94BB80
:1005A00082BB11BA13B88FEF82B9109262008FE04C
:1005B00080936100089584E08EBD8EEC9FEF9DBD19
:1005C0008CBD87B7846087BF7894089587B78C7F88
:1005D00087BF88E080BF12BE85E083BF87B7816098
:1005E00087BF08951F920F920FB60F9211242F9379
:1005F0003F934F935F936F937F938F939F93AF93AB
:10060000BF93EF93FF9360915202709153028091D8
:100610005402909155020E94B40080917502882383
:1006200029F40E943D018093750202C00E94550189
:100630000E94970080937702882319F081500E94CE
:1006400079018EEC9FEF9DBD8CBD84E08EBD87B798
:10065000846087BFFF91EF91BF91AF919F918F9180
:100660007F916F915F914F913F912F910F900FBEAE
:100670000F901F9018951F920F920FB60F92112492
:100680002F923F924F925F926F927F928F929F92A2
:10069000AF92BF92CF92DF92EF92FF920F931F9390
:1006A0002F933F934F935F936F937F938F939F937A
:1006B000AF93BF93EF93FF93F894809174028823D4
:1006C000E9F08091520290915302A0915402B091AE
:1006D00055020197A109B1098093520290935302E8
:1006E000A0935402B09355020097A105B10511F4EF
:1006F0000E940C0188B390E4892788BBE0905202E5
:10070000F09053020091540210915502C801B701B4
:1007100020EA3CE840E050E00E94950720938A02DE
:10072000C801B70120E13EE040E050E00E9495079B
:100730003B014C016AE0A62EB12CC12CD12CCA0180
:10074000B901A60195010E94950760938B02C4012F
:10075000B30128E532E040E050E00E949507209385
:100760008C025CE3252E312C412C512CC401B301A9
:10077000A20191010E949507CA01B901A601950144
:100780000E94950760938D02C801B701A2019101F3
:100790000E949507A60195010E94950720938E025D
:1007A00060938F027894FF91EF91BF91AF919F91E9
:1007B0008F917F916F915F914F913F912F911F91F9
:1007C0000F91FF90EF90DF90CF90BF90AF909F90F0
:1007D0008F907F906F905F904F903F902F900F90F1
:1007E0000FBE0F901F9018958EE092E061E070E0D0
:1007F00040E150E00E940C088EE192E061E170E07F
:1008000040E150E00E940C088EE292E061E270E06C
:1008100040E150E00E940C0881E390E00E941C0837
:1008200060934E0270934F02809350029093510256
:100830008EE392E061E470E048E050E00E940C0832
:1008400080914E0290914F02A0915002B0915102BE
:100850008093520290935302A0935402B093550296
:1008600080E008951F930E9436071AE00E94360721
:1008700081501150D9F7893009F072C08EE092E0B2
:1008800061E070E040E150E00E9422088EE192E0D9
:1008900061E170E040E150E00E9422088EE292E0C7
:1008A00061E270E040E150E00E94220840914E0277
:1008B00050914F02609150027091510281E390E09B
:1008C0000E94390881E00E94070584E791E00E94B8
:1008D000610586E492E068E00E94FC068823C9F383
:1008E00086E492E06EE372E048E00E9465008823AF
:1008F00081F086E492E06EE372E048E00E947700C7
:1009000081E00E94070581E891E00E94610580E096
:100910001EC08EE392E061E470E048E050E00E9487
:10092000220881E00E94070581E991E00E946105AB
:100930008FE392E4AFE081509040A040E1F700C027
:10094000000081E00E9407050E94850081E0A3EC81
:10095000B9E01197F1F700C00000882309F4B9CF7E
:100960001F9108950E94C7020E942F070E94E10470
:100970008CE00E94070581E00E9407050E94320476
:100980000E94F40380910D0290E074E0880F991F9B
:100990007A95E1F783569E4F60E10E9492050E948E
:1009A000DB020E94E60285B7806285BF8895FECF94
:1009B000AA9A89EF90E00197F1F700C00000AA9889
:1009C00008951F93A8988FE493EC0197F1F700C066
:1009D000000010E315BB00C000000E94D80400C056
:1009E000000015BB00C000000E94D80400C0000039
:1009F00015BB00C000000E94D80400C0000080E2C7
:100A000085BB00C000000E94D8041F910895DF93A9
:100A1000CF930F92CDB7DEB725B3982F9F60206F8D
:100A2000922395BB00C00000A89800C000008983F5
:100A30000E94D80496EA9A95F1F700C095B389818F
:100A40008295807F9F70892B85BB00C00000A8988D
:100A500000C000000E94D804E6EAEA95F1F700C061
:100A60000F90CF91DF910895DF93CF930F92CDB781
:100A7000DEB725B3982F9F60206F922395BB00C0EF
:100A80000000A89A00C0000089830E94D80496EA5A
:100A90009A95F1F700C095B389818295807F9F7008
:100AA000892B85BB00C00000A89A00C000000E94EE
:100AB000D804E6EAEA95F1F700C00F90CF91DF91F4
:100AC0000895CF92DF92FF920F931F93DF93CF93FE
:100AD0000F92CDB7DEB7F82E0F2D192FCC24DD24C1
:100AE0000CC0F80181918F0199830E94340500C0E8
:100AF00000000894C11CD11C9981AF2DB92FFD01B4
:100B000001900020E9F73197EA1BFB0BCE16DF06B8
:100B100040F30F90CF91DF911F910F91FF90DF90E5
:100B2000CF900895EF92FF920F931F93CF93DF938F
:100B3000082F192FC0E0D0E0E62EFF2408C0F801EE
:100B400081918F010E94340500C000002196CE15CE
:100B5000DF05ACF3DF91CF911F910F91FF90EF90E4
:100B600008954F925F926F927F928F929F92AF9271
:100B7000BF92CF92DF92EF92FF921F93DF93CF93BA
:100B8000CDB7DEB7A8970FB6F894DEBF0FBECDBFC6
:100B90006B017C0197FF0BC08DE20E943405F0943D
:100BA000E094D094C094C11CD11CE11CF11C10E055
:100BB0002E010894411C511C2AE0622E712C812CBC
:100BC000912C1F5FA12EBB24AA0CBB1CA40CB51C2E
:100BD000C701B601A40193010E949507F501718335
:100BE000608369017A01C114D104E104F10449F779
:100BF0000CC0E12FF0E0EE0FFF1FEC0DFD1D80811A
:100C0000805D0E943405115004C06E010894C11C1F
:100C1000D11C112371F7A8960FB6F894DEBF0FBE52
:100C2000CDBFCF91DF911F91FF90EF90DF90CF90DC
:100C3000BF90AF909F908F907F906F905F904F90FC
:100C400008951F936AE070E00E948207182F862F94
:100C5000805D0E943405812F805D0E9434051F91C4
:100C6000089580E80E9407050895CF93DF93C8E2B6
:100C7000D0E080EC0E9407052197D9F7DF91CF9152
:100C800008958130910529F4AD9A85B3806284BBC3
:100C90000895009711F4AD98A5980895F8941092CE
:100CA000910226C0982F9795992797958695992315
:100CB00079F48F98979895E09A95F1F78F9A97988D
:100CC00091E29A95F1F700008F9A979A00C00BC0B5
:100CD0008F98979895E09A95F1F78F9A979A91E265
:100CE0009A95F1F70000909191029F5F9093910285
:100CF000909191029830B0F278940895EF92FF921B
:100D00000F931F93CF93DF93282F392FD90180E0C2
:100D100090E070E041E050E012C00191002341F00A
:100D2000EA01022E02C0CC0FDD1F0A94E2F71C2B51
:100D30002F5F3F4F2830310581F71D9301968617AD
:100D4000970764F4FC0123E0EE0FFF1F2A95E1F7FB
:100D5000EE56FD4F20E030E010E0DFCF81E0DF9184
:100D6000CF911F910F91FF90EF900895F8941092FA
:100D7000910241E039C0109290022DC08F9A97984D
:100D800000C0000097988F9832E03A95F1F730E074
:100D9000E0919102879B0CC0F0E073E0EE0FFF1F23
:100DA0007A95E1F7E20FF31FEE56FD4F40830BC03B
:100DB000F0E053E0EE0FFF1F5A95E1F7E20FF31F4B
:100DC000EE56FD4F108228E22A95F1F7209190020D
:100DD0002F5F2093900220919002283078F220918A
:100DE00091022F5F2093910220919102283018F2F6
:100DF00078940E947E0608950F931F93DF93CF93FC
:100E00000F92CDB7DEB78C018F9A9798F89481EC4A
:100E10008A95F1F700008F98E7E1EA95F1F7000075
:100E2000879B07C0F8E8FA95F1F700C0789480E056
:100E300010C088E88A95F1F700C0789483E390E0C9
:100E400069830E944E06C801698170E00E94B6065F
:100E500081E00F90CF91DF911F910F9108958FE066
:100E60008093620080EF80936100089580E090E0BD
:100E700021E030E0AC014C5F5F4FB90102C0660F6A
:100E8000771F4A95E2F7AB0140954093620040B16D
:100E90004F7081F14B30D9F04C3018F4473051F598
:100EA0001FC04D3059F04E3029F5FC01EE0FFF1FE9
:100EB000EE0FFF1FEF59FD4F80811AC0FC01EE0FAE
:100EC000FF1FEE0FFF1FEF59FD4F818111C0FC0185
:100ED000EE0FFF1FEE0FFF1FEF59FD4F828108C07D
:100EE000FC01EE0FFF1FEE0FFF1FEF59FD4F838137
:100EF0008F5F089501968430910509F0BBCF000003
:100F000080E0089597FB092E07260AD077FD04D0CC
:100F100027D006D000201AF4709561957F4F089570
:100F2000F6F7909581959F4F089597FB092E05261A
:100F30000ED057FD04D028D00AD0001C38F45095AC
:100F40004095309521953F4F4F4F5F4F0895F6F7ED
:100F500090958095709561957F4F8F4F9F4F089525
:100F6000AA1BBB1B51E107C0AA1FBB1FA617B707CF
:100F700010F0A61BB70B881F991F5A95A9F78095EB
:100F80009095BC01CD010895A1E21A2EAA1BBB1BAE
:100F9000FD010DC0AA1FBB1FEE1FFF1FA217B30745
:100FA000E407F50720F0A21BB30BE40BF50B661F5B
:100FB000771F881F991F1A9469F76095709580951F
:100FC00090959B01AC01BD01CF010895FC018827DC
:100FD0009927E89421912032E9F3293010F02E303E
:100FE000C8F32B3241F02D3239F4689404C00E94CA
:100FF0000408820F911D219120532A30C0F31EF462
:10100000909581959F4F08957AE0979F902D879FA7
:10101000802D910D11240895DC01CB01FC01E19993
:10102000FECF06C0FFBBEEBBE09A31960DB20D922B
:1010300041505040B8F70895A6E1B0E044E050E0D8
:101040000C940E08DC01CB0103C02D910E942D08E9
:1010500041505040D0F70895262FE199FECF9FBB15
:101060008EBB2DBB0FB6F894E29AE19A0FBE0196A3
:101070000895242F0E942D08252F0E942D080C94DE
:1010800041080E942C08272F0C942D08F894FFCFBC
:1010900020202047414D45204F56455221002042F7
:1010A0004F4F4D20424F4F4D20424F4F4D20005744
:1010B000726F6E6720436F6465212020202020001E
:1010C000436F6465204F4B212020202020202020CA
:1010D0000057726F6E672050617373776F7264216F
:1010E000200050617373776F7264204F4B21202072
:1010F00020200054696D657220736574206F6B2128
:101100002020200050555420544845204B4559215B
:101110000057524F4E47204B4559205245414421DC
:10112000004B4559205245414445442100456E74C9
:1011300065722053544F5020636F646520456E7470
:10114000657220535441525420636F6465456E7438
:1011500065722041646D696E20636F646553455408
:101160002041646D696E20636F646520205345548F
:1011700020535441525420636F64652020534554DA
:101180002053544F5020636F6465202020534554F2
:101190002054696D657220202020202020013333E7
:1011A0003320202020202020202020202020333504
:1011B00033202020202020202020202020203533F4
:1011C00035202020202020202020202020202B2BF4
:1011D0002B2B2B2B2B2B2D2D2D2D2D2D2D2D100E87
:1011E0000000100E0000013F065B4F666D7D077F1B
:1011F0006F111213140104075802050800030609B1
:02120000590093
:00000001FF
