:100000000C9446000C9463000C9463000C94630001
:100010000C9463000C9463000C9463000C946300D4
:100020000C9463000C9463000C9463000C946300C4
:100030000C9463000C9463000C945A030C946300BA
:100040000C94A2030C9463000C9463000C94630062
:100050000C9463000C9463000C9463000C94630094
:100060000C9463000C9463000C9463000C94630084
:100070000C9463000C9463000C9463000C94630074
:100080000C9463000C9463000C94630011241FBE55
:10009000CFEFD0E1DEBFCDBF12E0A0E0B1E0E4E2FF
:1000A000F0E102C005900D92A036B107D9F712E039
:1000B000A0E6B2E001C01D92A83CB107E1F70E94A2
:1000C000BE040C9410080C940000262F372FD90181
:1000D000E82FF92F04C021919D91291731F49E2F0B
:1000E000981B9417C0F380E0089581E00895282FAD
:1000F000392FD901862F972FFC0180E003C09D91F5
:1001000091938F5F8417D8F308958FEF80934902FE
:1001100080934A0280934B0280934C0280934D025D
:1001200080934E0280934F028093500208951F9354
:100130000E944A07182F80EC0E941905812F90E039
:10014000C09661E00E94A40580E01F9108958A3066
:1001500030F4E82FF0E0EB5AFD4F808101C080E0E1
:100160006111806808952F923F924F925F926F9233
:100170007F928F929F92AF92BF92CF92DF92EF9237
:10018000FF920F931F93CF93DF937B018C0180919C
:100190006C0290916D02A0916E02B0916F028E156B
:1001A0009F05A007B10709F454C0C801B70120EAB0
:1001B0003CE840E050E00E945F0720938002C801C5
:1001C000B70120E13EE040E050E00E945F073B01C4
:1001D0004C016AE0A62EB12CC12CD12CCA01B90168
:1001E000A60195010E945F0760938102C401B301DB
:1001F00028E532E040E050E00E945F072093820251
:100200009CE3292E312C412C512CC401B301A201B5
:1002100091010E945F07CA01B901A60195010E94E0
:100220005F0760938302C801B701A20191010E9498
:100230005F07A60195010E945F07209384026093E7
:100240008502E0926C02F0926D0200936E021093B0
:100250006F0200E812E0C0E0D0E081E0E82EF12C6F
:10026000C7010C2E02C0880F991F0A94E2F78BBBBE
:10027000CE018170682FF80181918F010E94A70043
:1002800083B9F9EEFA95F1F700002196C730D10550
:1002900039F780E0DF91CF911F910F91FF90EF90A0
:1002A000DF90CF90BF90AF909F908F907F906F9096
:1002B0005F904F903F902F9008951092610210929E
:1002C000620281E00E94190580E091E060E10E94F5
:1002D000A4058091510290915202A0915302B091D5
:1002E00054028093650290936602A0936702B093D4
:1002F0006802DE9A089510926202DE9A0895CF9302
:10030000DF931092620210926102809151029091EB
:100310005202A0915302B0915402809365029093CF
:100320006602A0936702B093680281E00E941905FB
:10033000C1E1D1E0CE010E94730580EC0E94190555
:10034000CE010E947305DE9ADF91CF91089589E472
:1003500092E068E00E940E07882369F089E492E049
:1003600061E472E048E00E946500882331F40E9455
:10037000850081E0089580E0089580E0089581304F
:1003800001F580916102882329F00E945D0110929D
:10039000630215C01092630282E08093100281E034
:1003A0000E9419058091100290E074E0880F991F57
:1003B0007A95E1F780569E4F60E10E94A40581E0A6
:1003C000089580E008951F93823009F46BC0843053
:1003D00031F190916B02903119F49FE090936B0290
:1003E00090916B02E92FF0E0E059FD4F805D808332
:1003F000892F8F5F80936B0290E206C0E82FF0E0B8
:10040000E059FD4F90838F5F8031C0F380EC0E94F4
:10041000190580E792E060E10E94A4051DC180916A
:1004200062028823D9F01092100281E00E9419051F
:100430008091100290E0F4E0880F991FFA95E1F79F
:1004400080569E4F60E10E94A405E0E7F2E080E262
:10045000819392E0E038F907D9F720C080916002DB
:10046000882349F0809110028F5F809310028730BB
:1004700029F483E001C081E08093100281E00E94B2
:1004800019058091100290E0E4E0880F991FEA9529
:10049000E1F780569E4F60E10E94A405E0E7F2E09C
:1004A00080E2D3C010911002133009F45AC0143006
:1004B00028F41130F9F01230C0F509C0153009F4F4
:1004C00077C0153008F465C0163041F789C080E761
:1004D00092E061E372E040E10E946500882399F4B4
:1004E00080EC0E94190583E391E00E9473050E944D
:1004F0007B01D4CF80E792E061E272E040E10E94AC
:100500006500882331F080EC0E94190582E291E0B9
:100510001AC080EC0E94190583E391E00E947305E4
:100520001093620210936102B9CF80E792E061E11B
:1005300072E040E10E946500882341F080EC0E9457
:10054000190584E491E00E947305A8CF80EC0E9415
:10055000190585E591E00E94730581E080936002B2
:100560009DCF80E792E061E172E040E10E94770078
:1005700081E080936A0281E192E061E070E040E115
:1005800050E00E94EC0780EC0E94190585E591E09F
:10059000DACF80E792E061E272E040E10E9477000A
:1005A00081E180936A0281E292E061E170E00EC035
:1005B00080E792E061E372E040E10E94770081E22F
:1005C00080936A0281E392E061E270E040E150E0F2
:1005D0000E94EC0780EC0E94190583E391E0B3CF01
:1005E000E0E7F2E08081803209F41082319682E007
:1005F000E038F807B9F7CF0140970E94B007AC0187
:10060000662757FD6095762F409351025093520212
:1006100060935302709354024093650250936602B4
:10062000609367027093680281E380936A0281E3BA
:1006300090E00E94030880EC0E94190586E691E094
:100640000E9473051092600229CF819392E0E038F6
:10065000F907D9F710926B0280E01F9108951BBA39
:100660008FE38ABB18BA80EC87BB15BA97EF94BBAF
:1006700082BB11BA13B88FEF82B9109262008FE07B
:1006800080936100089584E08EBD8EEC9FEF9DBD48
:100690008CBD87B7846087BF7894089587B78C7FB7
:1006A00087BF88E080BF12BE85E083BF87B78160C7
:1006B00087BF08951F920F920FB60F9211242F93A8
:1006C0003F934F935F936F937F938F939F93AF93DA
:1006D000BF93EF93FF9360916502709166028091E2
:1006E0006702909168020E94B300809163028823A0
:1006F00029F40E94A7018093630202C00E94BF01F7
:100700000E94970080936902882311F00E94E30100
:1007100082EE9FEF9DBD8CBD84E08EBD87B7846067
:1007200087BFFF91EF91BF91AF919F918F917F9183
:100730006F915F914F913F912F910F900FBE0F904E
:100740001F9018951F920F920FB60F9211242F939E
:100750003F934F935F936F937F938F939F93AF9349
:10076000BF93EF93FF938091650290916602A091F1
:100770006702B09168029C01AD01215030404040B9
:100780005040209365023093660240936702509375
:1007900068020097A105B10561F480EA9CE8A0E039
:1007A000B0E08093650290936602A0936702B093D5
:1007B0006802809162028823E9F08091650290913D
:1007C0006602A0916702B09168020197A109B10980
:1007D0008093650290936602A0936702B0936802CB
:1007E0000097A105B10511F40E947F018BB390E43D
:1007F00089278BBBFF91EF91BF91AF919F918F9113
:100800007F916F915F914F913F912F910F900FBE0C
:100810000F901F90189581E192E061E070E040E157
:1008200050E00E94D60781E292E061E170E040E191
:1008300050E00E94D60781E392E061E270E040E17F
:1008400050E00E94D60781E390E00E94E6076093A3
:10085000510270935202809353029093540281E4A8
:1008600092E061E470E048E050E00E94D607809199
:10087000510290915202A0915302B0915402809380
:10088000650290936602A0936702B093680280E0CD
:100890000895C89972C081E192E061E070E040E1A2
:1008A00050E00E94EC0781E292E061E170E040E1FB
:1008B00050E00E94EC0781E392E061E270E040E1E9
:1008C00050E00E94EC074091510250915202609119
:1008D00053027091540281E390E00E94030881E08A
:1008E0000E94190587E791E00E94730589E492E070
:1008F00068E00E940E078823C9F389E492E061E46E
:1009000072E048E00E946500882381F089E492E06B
:1009100061E472E048E00E94770081E00E941905DE
:1009200084E891E00E94730580E01EC081E492E0BB
:1009300061E470E048E050E00E94EC0781E00E9432
:10094000190584E991E00E9473058FE392E4AFE01A
:1009500081509040A040E1F700C0000081E00E947B
:1009600019050E94850081E0A3ECB9E01197F1F729
:1009700000C00000882309F4B9CF08950E942F0316
:100980000E9441070E94F3048CE00E94190581E057
:100990000E9419050E940B048091100290E0A4E0CF
:1009A000880F991FAA95E1F780569E4F60E10E943B
:1009B000A4050E9443030E944E0380E891E5A1E054
:1009C000B0E08093650290936602A0936702B093B3
:1009D0006802FFCFAA9A89EF90E00197F1F700C073
:1009E0000000AA9808951F93A8988FE493EC0197AC
:1009F000F1F700C0000010E315BB00C000000E942A
:100A0000EA0400C0000015BB00C000000E94EA0418
:100A100000C0000015BB00C000000E94EA0400C036
:100A2000000080E285BB00C000000E94EA041F9124
:100A30000895DF93CF930F92CDB7DEB725B3982FEC
:100A40009F60206F922395BB00C00000A89800C053
:100A5000000089830E94EA0496EA9A95F1F700C0A3
:100A600095B389818295807F9F70892B85BB00C05B
:100A70000000A89800C000000E94EA04E6EAEA9597
:100A8000F1F700C00F90CF91DF910895DF93CF93DE
:100A90000F92CDB7DEB725B3982F9F60206F9223BA
:100AA00095BB00C00000A89A00C0000089830E9486
:100AB000EA0496EA9A95F1F700C095B38981829588
:100AC000807F9F70892B85BB00C00000A89A00C062
:100AD00000000E94EA04E6EAEA95F1F700C00F90F0
:100AE000CF91DF910895CF92DF92FF920F931F93E2
:100AF000DF93CF930F92CDB7DEB7F82E0F2D192FBE
:100B0000CC24DD240CC0F80181918F0199830E94CF
:100B1000460500C000000894C11CD11C9981AF2D6E
:100B2000B92FFD0101900020E9F73197EA1BFB0B7B
:100B3000CE16DF0640F30F90CF91DF911F910F91FA
:100B4000FF90DF90CF900895EF92FF920F931F9345
:100B5000CF93DF93082F192FC0E0D0E0E62EFF24BB
:100B600008C0F80181918F010E94460500C0000075
:100B70002196CE15DF05ACF3DF91CF911F910F9138
:100B8000FF90EF9008954F925F926F927F928F92B5
:100B90009F92AF92BF92CF92DF92EF92FF921F93FC
:100BA000DF93CF93CDB7DEB7A8970FB6F894DEBF2B
:100BB0000FBECDBF6B017C0197FF0BC08DE20E9481
:100BC0004605F094E094D094C094C11CD11CE11C63
:100BD000F11C10E02E010894411C511C2AE0622EE9
:100BE000712C812C912C1F5FA12EBB24AA0CBB1C45
:100BF000A40CB51CC701B601A40193010E945F07B4
:100C0000F5017183608369017A01C114D104E104A3
:100C1000F10449F70CC0E12FF0E0EE0FFF1FEC0DDF
:100C2000FD1D8081805D0E944605115004C06E014B
:100C30000894C11CD11C112371F7A8960FB6F89423
:100C4000DEBF0FBECDBFCF91DF911F91FF90EF9020
:100C5000DF90CF90BF90AF909F908F907F906F90DC
:100C60005F904F9008951F936AE070E00E944C07D8
:100C7000182F862F805D0E944605812F805D0E947F
:100C800046051F91089580E80E9419050895CF93A5
:100C9000DF93C8E2D0E080EC0E9419052197D9F7D4
:100CA000DF91CF9108958130910529F4AD9A85B3F4
:100CB000806284BB0895009711F4AD98A5980895BB
:100CC000F8941092870226C0982F979599279795A8
:100CD0008695992379F48F98979895E09A95F1F7EE
:100CE0008F9A979891E29A95F1F700008F9A979AC8
:100CF00000C00BC08F98979895E09A95F1F78F9A5E
:100D0000979A91E29A95F1F70000909187029F5F80
:100D100090938702909187029830B0F2789408956A
:100D2000EF92FF920F931F93CF93DF93282F392FCA
:100D3000D90180E090E070E041E050E012C0019104
:100D4000002341F0EA01022E02C0CC0FDD1F0A94FD
:100D5000E2F71C2B2F5F3F4F2830310581F71D93A1
:100D600001968617970764F4FC0123E0EE0FFF1F3E
:100D70002A95E1F7E857FD4F20E030E010E0DFCFA3
:100D800081E0DF91CF911F910F91FF90EF90089537
:100D9000F8941092870241E039C0109286022DC06B
:100DA0008F9A979800C0000097988F9832E03A95F4
:100DB000F1F730E0E0918702879B0CC0F0E073E030
:100DC000EE0FFF1F7A95E1F7E20FF31FE857FD4F93
:100DD00040830BC0F0E053E0EE0FFF1F5A95E1F7A0
:100DE000E20FF31FE857FD4F108228E22A95F1F732
:100DF000209186022F5F2093860220918602283060
:100E000078F2209187022F5F20938702209187023A
:100E1000283018F278940E94900608950F931F933B
:100E2000DF93CF930F92CDB7DEB78C018F9A97984F
:100E3000F89481EC8A95F1F700008F98E7E1EA9544
:100E4000F1F70000879B07C0F8E8FA95F1F700C0BA
:100E5000789480E010C088E88A95F1F700C0789413
:100E600083E390E069830E946006C801698170E0B5
:100E70000E94C80681E00F90CF91DF911F910F91E2
:100E80000895E2E6F0E08FE08083808380EF809336
:100E90006100089580E0089597FB092E07260AD087
:100EA00077FD04D027D006D000201AF47095619504
:100EB0007F4F0895F6F7909581959F4F089597FB82
:100EC000092E05260ED057FD04D028D00AD0001CCC
:100ED00038F450954095309521953F4F4F4F5F4FD7
:100EE0000895F6F790958095709561957F4F8F4F97
:100EF0009F4F0895AA1BBB1B51E107C0AA1FBB1F30
:100F0000A617B70710F0A61BB70B881F991F5A9595
:100F1000A9F780959095BC01CD010895A1E21A2E04
:100F2000AA1BBB1BFD010DC0AA1FBB1FEE1FFF1F8D
:100F3000A217B307E407F50720F0A21BB30BE40BDD
:100F4000F50B661F771F881F991F1A9469F7609524
:100F50007095809590959B01AC01BD01CF010895DE
:100F6000FC0188279927E89421912032E9F3293060
:100F700010F02E30C8F32B3241F02D3239F4689442
:100F800004C00E94CE07820F911D219120532A3068
:100F9000C0F31EF4909581959F4F08957AE0979F36
:100FA000902D879F802D910D11240895DC01CB0198
:100FB000FC01E199FECF06C0FFBBEEBBE09A319683
:100FC0000DB20D9241505040B8F70895A6E1B0E03F
:100FD00044E050E00C94D807DC01CB0103C02D9114
:100FE0000E94F70741505040D0F70895262FE1990D
:100FF000FECF9FBB8EBB2DBB0FB6F894E29AE19A51
:101000000FBE01960895242F0E94F707252F0E94F6
:10101000F7070C940B080E94F607272F0C94F7078C
:04102000F894FFCF72
:1010240020202047414D45204F5645522120202065
:101034000020424F4F4D20424F4F4D20424F4F4DC5
:10104400200057726F6E6720436F64652120202053
:10105400202000436F6465204F4B21202020202056
:101064002020200057726F6E672050617373776F72
:10107400726421200050617373776F7264204F4B48
:1010840021202020200054696D657220736574202E
:101094006F6B212020200050555420544845204B8C
:1010A4004559210057524F4E47204B455920524530
:1010B400414421004B4559205245414445442100B7
:1010C400456E7465722053544F5020636F646520DD
:1010D400456E74657220535441525420636F6465A5
:1010E400456E7465722041646D696E20636F64653A
:1010F4005345542041646D696E20636F64652020FC
:1011040053455420535441525420636F6465202046
:101114005345542053544F5020636F64652020205E
:101124005345542054696D657220202020202020CE
:101134000133333320202020202020202020202091
:101144002033353320202020202020202020202060
:10115400203533352020202020202020202020204E
:10116400202B2B2B2B2B2B2B2B2D2D2D2D2D2D2DC8
:101174002D100E00003F065B4F666D7D077F6F00EC
:00000001FF
