:100000000C9446000C9463000C9463000C94630001
:100010000C9463000C9463000C9463000C946300D4
:100020000C9463000C9463000C9463000C946300C4
:100030000C9463000C9463000C94A2040C94630071
:100040000C94E9040C9463000C9463000C9463001A
:100050000C9463000C9463000C9463000C94630094
:100060000C9463000C9463000C9463000C94630084
:100070000C9463000C9467040C9463000C9463006C
:100080000C9463000C9463000C94630011241FBE55
:10009000CFEFD0E1DEBFCDBF12E0A0E0B1E0EEE4F3
:1000A000FAE102C005900D92A03DB107D9F713E027
:1000B000A0EDB2E001C01D92A333B107E1F70E94A9
:1000C0009A060C94250D0C940000262F372FD90189
:1000D000E82FF92F04C021919D91291731F49E2F0B
:1000E000981B9417C0F380E0089581E00895282FAD
:1000F000392FD901862F972FFC0180E003C09D91F5
:1001000091938F5F8417D8F308958FEF80933F0208
:100110008093400280934102809342028093430285
:100120008093440280934502809346020895DF93B2
:10013000CF93CDB7DEB761970FB6F894DEBF0FBE91
:10014000CDBF81E080930602C6980E94E606DE01DC
:100150001196E5EAF2E081E101900D928150E1F71C
:10016000CE0101960E9440078FEB97E2A9E08150F3
:100170009040A040E1F700C0000081E00E94E60648
:10018000C59861960FB6F894DEBF0FBECDBFCF9174
:10019000DF910895DF93CF93CDB7DEB761970FB6A8
:1001A000F894DEBF0FBECDBF81E0809305021092B0
:1001B00006028EE18093D602C59A81E00E94E6068F
:1001C000DE011196E4E9F2E081E101900D928150A7
:1001D000E1F7CE0101960E9440078FEB97E2A9E07C
:1001E00081509040A040E1F700C0000081E00E94F3
:1001F000E6068091050290E024E0880F991F2A9579
:10020000E1F78B589E4F60E10E94710761960FB62F
:10021000F894DEBF0FBECDBFCF91DF9108950E944D
:100220001509882339F090919302992339F010929F
:100230009302089591E090939302089580E00895C9
:100240008A3030F4E82FF0E0EA54FD4F808101C09D
:1002500080E0611180680895EF92FF920F931F93E1
:10026000CF93DF930BEE12E0C0E0D0E031E0E32E5D
:10027000F12CC7010C2E02C0880F991F0A94E2F7D7
:100280008BBBCE018170682FF80181918F010E9494
:10029000200183B9F2E4FA95F1F700C01BBA13B854
:1002A00026E02A95F1F700C02196C730D10509F75D
:1002B00080E0DF91CF911F910F91FF90EF90089513
:1002C0001092D1021092D20281E00E94E60684E6EA
:1002D00091E00E9440078091470290914802A091CE
:1002E0004902B0914A0280934B0290934C02A09332
:1002F0004D02B0934E02C6988FEB97E2A9E0815071
:100300009040A040E1F700C000000E9497000895CF
:100310001092D202C69808950F931F93DF93CF9344
:10032000CDB7DEB761970FB6F894DEBF0FBECDBF75
:100330001092D2021092D10280914702909148020D
:10034000A0914902B0914A0280934B0290934C02D3
:10035000A0934D02B0934E02DE011196E2E8F2E066
:1003600081E101900D928150E1F781E00E94E60663
:100370008E010F5F1F4FC8010E94400780EC0E9452
:10038000E606C8010E944007C6988E9A969A8FEB9F
:1003900097E2A9E081509040A040E1F700C0000042
:1003A000969861960FB6F894DEBF0FBECDBFCF9181
:1003B000DF911F910F9108958FE392E068E00E9412
:1003C000DB08882369F08FE392E067E372E048E09E
:1003D0000E946500882331F40E94850081E0089521
:1003E00080E0089580E008951F93813091F5809119
:1003F000D102882329F01092D3020E94600127C005
:100400001092D30280910602882319F00E94CA003C
:100410001EC01AE00E94150981501150D9F7893089
:10042000A1F482E08093050281E00E94E6068091BB
:10043000050290E044E0880F991F4A95E1F78B5838
:100440009E4F60E10E94710702C00E94970081E008
:1004500001C080E01F910895CF92DF92EF92FF924A
:100460000F931F93DF93CF93CDB7DEB766970FB689
:10047000F894DEBF0FBECDBF982F9855923030F163
:100480009091DA02903119F49FE09093DA02909102
:10049000DA02E92FF0E0E552FD4F805D8083892F7D
:1004A0008F5F8093DA0290E206C0E82FF0E0E55219
:1004B000FD4F90838F5F8031C0F380EC0E94E60691
:1004C0008BED92E060E10E947107ADC1893509F0C2
:1004D00044C01092D8028091D2028823E9F0109291
:1004E000050281E00E94E6068091050290E074E03A
:1004F000880F991F7A95E1F78B589E4F60E10E9413
:100500007107EBEDF2E080E2819392E0EB3EF907B8
:10051000D9F71092DA0279C18091D002882349F08C
:10052000809105028F5F80930502893029F483E072
:1005300001C081E08093050281E00E94E60680917F
:10054000050290E064E0880F991F6A95E1F78B58E7
:100550009E4F60E10E94710758C10091050204306E
:1005600009F493C0053058F4013099F10130A0F03E
:10057000023009F458C0033009F047C16EC006309C
:1005800009F4AAC0063008F48FC0073009F409C185
:10059000083009F03AC12DC18091D8028F5F809355
:1005A000D802833009F031C11092D8028BED92E06D
:1005B00067E272E040E10E9465008823E9F480EC84
:1005C0000E94E60682E491E00E9440070E948801B2
:1005D00019C18091D8028F5F8093D802833009F0CF
:1005E00014C11092D8028BED92E067E172E040E115
:1005F0000E946500882331F080EC0E94E60681E3CA
:1006000091E0F4C080EC0E94E60682E491E00E9452
:1006100040070093D2020093D1028091D5028F5FF0
:100620008093D502EFC08BED92E067E072E040E18D
:100630000E946500882331F080EC0E94E6068FE07E
:1006400091E0D4C080EC0E94E60680E291E00E9436
:10065000400781E08093D002D8C08BED92E067E044
:1006600072E040E10E94770081E08093D90287E048
:1006700092E061E070E040E150E00E942A0C80ECE2
:100680000E94E60680E291E0B1C08BED92E067E166
:1006900072E040E10E94770081E18093D90287E116
:1006A00092E061E170E00EC08BED92E067E272E0F3
:1006B00040E10E94770081E28093D90287E292E0D4
:1006C00061E270E040E150E00E942A0C80EC0E9460
:1006D000E60682E491E08AC00BED12E0F801808129
:1006E000803209F410823196A2E0EB3EFA07B9F7A6
:1006F00054E0E52EF12CEC0EFD1E6E010894C11C99
:10070000D11CF8018081898381818A831B82C60183
:100710000E94E409D7018D937D010E5F1F4FB2E067
:10072000013E1B0771F76C8170E080E090E020E1F2
:100730003EE040E050E00E9461097B018C016D8148
:1007400070E080E090E02CE330E040E050E00E9478
:100750006109E60EF71E081F191F8E81E80EF11CB5
:10076000011D111DE0924702F092480200934902D8
:1007700010934A02E0924B02F0924C0200934D0219
:1007800010934E0281E38093D90281E390E0B80197
:10079000A7010E94410C80EC0E94E60683E591E0EF
:1007A00025C000D000D000D0EDB7FEB731968E0145
:1007B000095F1F4FADB7BEB712961C930E931197EA
:1007C00080E091E0938382838091D50284831582B7
:1007D0000E940A0AEDB7FEB736960FB6F894FEBF30
:1007E0000FBEEDBF80EC0E94E606C8010E944007E4
:1007F0000CC080EC0E94E6068BE091E00E9440076E
:100800001092D00289E50E942C028091D8028823A0
:1008100051F4EBEDF2E080E2819392E0EB3EF907D8
:10082000D9F71092DA0280E066960FB6F894DEBF30
:100830000FBECDBFCF91DF911F910F91FF90EF9031
:10084000DF90CF9008951BBA8FE38ABB18BA80EE71
:1008500087BB15BA87EF84BB80EC82BB11BA13B893
:100860008FEF82B9109262008FE08093610008954B
:1008700084E080938A008EEC9FEF909389008093B0
:100880008800EDE7F0E080818460808378940895AB
:1008900084E08EBD8EEC9FEF9DBD8CBD87B78460DC
:1008A00087BF089587B78C7F87BF88E080BF12BE5F
:1008B00085E083BF87B7816087BF8FE39DE0A3E0BA
:1008C00081509040A040E1F700C0000008951F92C1
:1008D0000F920FB60F9211242F933F934F935F9374
:1008E0006F937F938F939F93AF93BF93EF93FF93F8
:1008F0008EEC9FEF909389008093880080917D001B
:10090000846080937D0080910602882351F4609179
:100910004B0270914C0280914D0290914E020E94C8
:100920002C01FF91EF91BF91AF919F918F917F919A
:100930006F915F914F913F912F910F900FBE0F904C
:100940001F9018951F920F920FB60F9211242F939C
:100950003F934F935F936F937F938F939F93AF9347
:10096000BF93EF93FF938091D302882329F40E94D1
:10097000DC018093D30202C00E94F4018091060240
:10098000882369F40E940F018093D702882339F0ED
:100990009EE19093D602C59A81500E942C028CE071
:1009A0009EEF9DBD8CBD84E08EBD87B7846087BF00
:1009B000FF91EF91BF91AF919F918F917F916F9137
:1009C0005F914F913F912F910F900FBE0F901F900D
:1009D00018951F920F920FB60F9211242F923F92EB
:1009E0004F925F926F927F928F929F92AF92BF923F
:1009F000CF92DF92EF92FF920F931F932F933F932B
:100A00004F935F936F937F938F939F93AF93BF9316
:100A1000EF93FF9380910602882309F080C0F89439
:100A20008091D602882321F081508093D60201C0A4
:100A3000C5988091D2028823E9F088B390E4892791
:100A400088BB80914B0290914C02A0914D02B091D5
:100A50004E020197A109B10980934B0290934C0279
:100A6000A0934D02B0934E020097A105B10511F479
:100A70000E948C01E0904B02F0904C0200914D02DC
:100A800010914E02C801B70120EA3CE840E050E076
:100A90000E9493092093EB02C801B70120E13EE0D8
:100AA00040E050E00E9493093B014C01FAE0AF2E78
:100AB000B12CC12CD12CCA01B901A60195010E940B
:100AC00093096093EC02C401B30128E532E040E0F1
:100AD00050E00E9493092093ED02ECE32E2E312C7E
:100AE000412C512CC401B301A20191010E94930930
:100AF000CA01B901A60195010E9493096093EE0213
:100B0000C801B701A20191010E949309A6019501B4
:100B10000E9493092093EF026093F0027894FF9172
:100B2000EF91BF91AF919F918F917F916F915F9165
:100B30004F913F912F911F910F91FF90EF90DF9078
:100B4000CF90BF90AF909F908F907F906F905F906D
:100B50004F903F902F900F900FBE0F901F901895C1
:100B600087E092E061E070E040E150E00E94140C08
:100B700087E192E061E170E040E150E00E94140CF6
:100B800087E292E061E270E040E150E00E94140CE4
:100B900081E390E00E94240C609347027093480226
:100BA0008093490290934A0287E392E061E470E007
:100BB00048E050E00E94140C809147029091480256
:100BC000A0914902B0914A0280934B0290934C024B
:100BD000A0934D02B0934E0280E008950F931F93AF
:100BE000DF93CF93CDB7DEB7A2970FB6F894DEBFF1
:100BF0000FBECDBF0E9415090AE00E941509815061
:100C00000150D9F7893009F08AC0C59A87E092E08F
:100C100061E070E040E150E00E942A0C87E192E040
:100C200061E170E040E150E00E942A0C87E292E02E
:100C300061E270E040E150E00E942A0C40914702DE
:100C4000509148026091490270914A0281E390E01C
:100C50000E94410C81E00E94E606DE011196E1E768
:100C6000F2E081E101900D928150E1F7CE01019611
:100C70000E9440078E010E5E1F4F8FE392E068E0F6
:100C80000E94DB088823C9F38FE392E067E372E0F8
:100C900048E00E9465008823B9F08FE392E067E3A3
:100CA00072E048E00E94770081E00E94E606D801E9
:100CB000E0E6F2E081E101900D928150E1F7C80198
:100CC0000E94400780E022C087E392E061E470E088
:100CD00048E050E00E942A0C81E00E94E606D8011C
:100CE000EFE4F2E081E101900D928150E1F7C8015B
:100CF0000E9440078FE392E4AFE081509040A04013
:100D0000E1F700C000000E94850081E0A3ECB9E09B
:100D10001197F1F700C00000882309F4AECFA29626
:100D20000FB6F894DEBF0FBECDBFCF91DF911F91FC
:100D30000F9108950E9423040E940E090E94C0068C
:100D40008CE00E94E60681E00E94E6060E94EE0525
:100D50000E94B0050E9452040E9448040E94380478
:100D60000E94970085B7806285BF8895FECFAA9ABA
:100D700089EF90E00197F1F700C00000AA9808956C
:100D80001F93A8988FE493EC0197F1F700C000003F
:100D900010E315BB00C000000E94B70600C00000B1
:100DA00015BB00C000000E94B70600C0000015BBC4
:100DB00000C000000E94B70600C0000080E285BBB2
:100DC00000C000000E94B7061F910895DF93CF93E3
:100DD0000F92CDB7DEB725B3982F9F60206F922377
:100DE00095BB00C00000A89800C0000089830E9445
:100DF000B70696EA9A95F1F700C095B38981829576
:100E0000807F9F70892B85BB00C00000A89800C020
:100E100000000E94B706E6EAEA95F1F700C00F90DD
:100E2000CF91DF910895DF93CF930F92CDB7DEB7C7
:100E300025B3982F9F60206F922395BB00C00000C0
:100E4000A89A00C0000089830E94B70696EA9A9586
:100E5000F1F700C095B389818295807F9F70892BBF
:100E600085BB00C00000A89A00C000000E94B70621
:100E7000E6EAEA95F1F700C00F90CF91DF9108956F
:100E8000CF92DF92FF920F931F93DF93CF930F9236
:100E9000CDB7DEB7F82E0F2D192FCC24DD240CC0D2
:100EA000F80181918F0199830E94130700C000000F
:100EB0000894C11CD11C9981AF2DB92FFD0101905F
:100EC0000020E9F73197EA1BFB0BCE16DF0640F353
:100ED0000F90CF91DF911F910F91FF90DF90CF90F6
:100EE0000895EF92FF920F931F93CF93DF93082FF4
:100EF000192FC0E0D0E0E62EFF2408C0F801819150
:100F00008F010E94130700C000002196CE15DF0557
:100F1000ACF3DF91CF911F910F91FF90EF90089567
:100F20004F925F926F927F928F929F92AF92BF92F9
:100F3000CF92DF92EF92FF921F93DF93CF93CDB7C3
:100F4000DEB7A8970FB6F894DEBF0FBECDBF6B011A
:100F50007C0197FF0BC08DE20E941307F094E09490
:100F6000D094C094C11CD11CE11CF11C10E02E01D6
:100F70000894411C511C2AE0622E712C812C912C6A
:100F80001F5FA12EBB24AA0CBB1CA40CB51CC7015F
:100F9000B601A40193010E949309F5017183608356
:100FA00069017A01C114D104E104F10449F70CC0CC
:100FB000E12FF0E0EE0FFF1FEC0DFD1D8081805D45
:100FC0000E941307115004C06E010894C11CD11C6B
:100FD000112371F7A8960FB6F894DEBF0FBECDBFF0
:100FE000CF91DF911F91FF90EF90DF90CF90BF9056
:100FF000AF909F908F907F906F905F904F900895EB
:101000001F936AE070E00E948009182F862F805D90
:101010000E941307812F805D0E9413071F9108957E
:1010200080E80E94E6060895CF93DF93C8E2D0E0FF
:1010300080EC0E94E6062197D9F7DF91CF910895C1
:101040008130910529F4AD9A85B3806284BB0895FF
:10105000009711F4AD98A5980895F8941092F202B3
:1010600026C0982F9795992797958695992379F477
:101070008F98979895E09A95F1F78F9A979891E2C3
:101080009A95F1F700008F9A979A00C00BC08F983D
:10109000979895E09A95F1F78F9A979A91E29A9599
:1010A000F1F700009091F2029F5F9093F20290910D
:1010B000F2029830B0F278940895EF92FF920F9375
:1010C0001F93CF93DF93282F392FD90180E090E031
:1010D00070E041E050E012C00191002341F0EA01CC
:1010E000022E02C0CC0FDD1F0A94E2F71C2B2F5FEB
:1010F0003F4F2830310581F71D93019686179707DA
:1011000064F4FC0123E0EE0FFF1F2A95E1F7ED5098
:10111000FD4F20E030E010E0DFCF81E0DF91CF91A4
:101120001F910F91FF90EF900895F8941092F202A2
:1011300041E039C01092F1022DC08F9A979800C0FB
:10114000000097988F9832E03A95F1F730E0E091FF
:10115000F202879B0CC0F0E073E0EE0FFF1F7A9560
:10116000E1F7E20FF31FED50FD4F40830BC0F0E0BD
:1011700053E0EE0FFF1F5A95E1F7E20FF31FED501A
:10118000FD4F108228E22A95F1F72091F1022F5F9E
:101190002093F1022091F102283078F22091F2029E
:1011A0002F5F2093F2022091F202283018F27894F7
:1011B0000E945D0808950F931F93DF93CF930F92C2
:1011C000CDB7DEB78C018F9A9798F89481EC8A9509
:1011D000F1F700008F98E7E1EA95F1F70000879BAF
:1011E00007C0F8E8FA95F1F700C0789480E010C0E5
:1011F00088E88A95F1F700C0789483E390E06983EA
:101200000E942D08C801698170E00E94950881E064
:101210000F90CF91DF911F910F9108958FE08093F0
:10122000620080EF80936100089580E090E021E00B
:1012300030E0AC014C5F5F4FB90102C0660F771F11
:101240004A95E2F7AB0140954093620040B14F7080
:1012500081F14B30D9F04C3018F4473051F51FC0B4
:101260004D3059F04E3029F5FC01EE0FFF1FEE0F07
:10127000FF1FE054FD4F80811AC0FC01EE0FFF1FDD
:10128000EE0FFF1FE054FD4F818111C0FC01EE0FF6
:10129000FF1FEE0FFF1FE054FD4F828108C0FC01CD
:1012A000EE0FFF1FEE0FFF1FE054FD4F83818F5F96
:1012B000089501968430910509F0BBCF000080E0CD
:1012C0000895629FD001739FF001829FE00DF11D90
:1012D000649FE00DF11D929FF00D839FF00D749FB0
:1012E000F00D659FF00D9927729FB00DE11DF91F5C
:1012F000639FB00DE11DF91FBD01CF0111240895B9
:1013000097FB092E07260AD077FD04D027D006D0F8
:1013100000201AF4709561957F4F0895F6F7909527
:1013200081959F4F089597FB092E05260ED057FDF6
:1013300004D028D00AD0001C38F450954095309540
:1013400021953F4F4F4F5F4F0895F6F79095809549
:10135000709561957F4F8F4F9F4F0895AA1BBB1BC0
:1013600051E107C0AA1FBB1FA617B70710F0A61BA5
:10137000B70B881F991F5A95A9F780959095BC01C6
:10138000CD010895A1E21A2EAA1BBB1BFD010DC0C1
:10139000AA1FBB1FEE1FFF1FA217B307E407F50725
:1013A00020F0A21BB30BE40BF50B661F771F881F01
:1013B000991F1A9469F760957095809590959B0197
:1013C000AC01BD01CF010895FC0188279927E8945D
:1013D00021912032E9F3293010F02E30C8F32B325E
:1013E00041F02D3239F4689404C00E94020A820F41
:1013F000911D219120532A30C0F31EF490958195C0
:101400009F4F08957AE0979F902D879F802D910D93
:1014100011240895AEE0B0E0E0E1FAE00C94FC0C99
:101420000D891E8986E08C831A8309838FEF9FE7DD
:101430009E838D839E01275E3F4FCE0101966F896B
:10144000788DA9010E942D0AEF81F885E00FF11F28
:1014500010822E96E4E00C94180DACE0B0E0E3E3CB
:10146000FAE00C94EE0C6C011B018A01FC0117825E
:101470001682838181FFD1C12E010894411C511C29
:10148000F6019381F10193FD859193FF81911F01F5
:10149000882309F4BEC1853239F493FD859193FF09
:1014A00081911F01853229F490E0B6010E94640CFD
:1014B000E7CFEE24FF2420E02032B0F48B3269F035
:1014C0008C3228F4803251F0833271F40BC08D32AB
:1014D00039F0803349F421602CC02260246029C097
:1014E000286027C0206125C027FD2CC0382F30532D
:1014F0003A3098F426FF08C08E2D880FE82EEE0CA7
:10150000EE0CE80EE30E15C08F2D880FF82EFF0CA1
:10151000FF0CF80EF30E20620CC08E3221F426FD73
:1015200078C1206406C08C3611F4206802C0883669
:1015300049F4F10193FD859193FF81911F01882367
:1015400009F0BACF982F9554933018F090529330F9
:1015500028F40C5F1F4FFFE3F9830DC0833631F091
:10156000833771F0833509F060C022C0F8018081B3
:1015700089830E5F1F4F420171E0A72EB12C16C068
:1015800062E0662E712C600E711EF80180809180E1
:1015900026FF03C06E2D70E002C06FEF7FEFC40125
:1015A0002C870E94590C5C0183012C852F7717C072
:1015B00052E0652E712C600E711EF80180809180C2
:1015C00026FF03C06E2D70E002C06FEF7FEFC401F5
:1015D0002C870E944E0C5C012C852068830123FD22
:1015E00020C008C080E290E0B6012C870E94640C05
:1015F000FA942C858F2D90E0A816B90698F311C0A7
:10160000F40127FD859127FF81914F0190E0B601FC
:101610002C870E94640C2C85F110FA940894A10880
:10162000B108A114B10461F7F1C0843611F0893614
:1016300049F527FF08C0F80160817181828193819B
:101640000C5F1F4F09C0F80160817181882777FD09
:101650008095982F0E5F1F4F4FE6B42EB22297FF52
:1016600009C090958095709561957F4F8F4F9F4FE2
:10167000F0E8BF2AA2012AE030E00E94900C782E08
:10168000741845C0853731F43FEEB32EB2222AE0FC
:1016900030E025C099EFB92EB2228F36C1F08037E5
:1016A00020F4883509F0B5C00DC0803721F08837A7
:1016B00009F0AFC002C020E1B22AB4FE0BC084E042
:1016C000B82A08C0B4FE09C0E6E0BE2A06C028E079
:1016D00030E005C020E130E002C020E132E0B7FE9A
:1016E00008C0F80160817181828193810C5F1F4F76
:1016F00007C0F8016081718180E090E00E5F1F4FAC
:10170000A2010E94900C782E7418FFE7BF22B6FE4B
:101710000BC02EEFB2227E1438F4B4FE07C0B2FC28
:1017200005C08FEEB82202C0A72C01C0AE2C8B2DB5
:1017300090E0B4FE0DC0FE01E70DF11D20812033C5
:1017400019F4E9EEBE2209C0A394B2FE06C004C09B
:1017500086789070009709F0A3948B2C9924B3FCA1
:1017600014C0B0FE0FC0AF1428F4E72CEF0CEA1839
:10177000AF2C08C0E72C06C080E290E0B6010E94C2
:10178000640CA394AF14C0F304C0AF1410F4FA189F
:1017900001C0FF2484FE0FC080E390E0B6010E94E8
:1017A000640C82FE1FC081FE03C088E590E010C07B
:1017B00088E790E00DC0C40186789070009791F0A2
:1017C00081FC02C080E201C08BE2B7FC8DE290E0B8
:1017D000B6010E94640C06C080E390E0B6010E944E
:1017E000640CEA947E14C0F37A94F201E70DF11DC3
:1017F000808190E0B6010E94640C7720A9F706C0B2
:1018000080E290E0B6010E94640CFA94FF20C1F7D8
:1018100037CEF6012681378102C02FEF3FEFC90195
:101820002C96E2E10C940A0DDC01CB01FC01E1995C
:10183000FECF06C0FFBBEEBBE09A31960DB20D9213
:1018400041505040B8F70895A6E1B0E044E050E0C0
:101850000C94160CDC01CB0103C02D910E94350CB9
:1018600041505040D0F70895262FE199FECF9FBBFD
:101870008EBB2DBB0FB6F894E29AE19A0FBE01968B
:101880000895242F0E94350C252F0E94350C0C94AE
:10189000490C0E94340C272F0C94350CFC01059048
:1018A000615070400110D8F7809590958E0F9F1F62
:1018B0000895FC016150704001900110D8F78095A7
:1018C00090958E0F9F1F08950F931F93CF93DF93D3
:1018D0008C01EB018B8181FF1BC082FF0DC02E812B
:1018E0003F818C819D812817390764F4E881F98153
:1018F0000193F983E88306C0E885F985802F09956F
:10190000009731F48E819F8101969F838E8302C060
:101910000FEF1FEFC801DF91CF911F910F91089535
:10192000FA01AA27283051F1203181F1E8946F9310
:101930006E7F6E5F7F4F8F4F9F4FAF4FB1E03ED0B6
:10194000B4E03CD0670F781F891F9A1FA11D680F54
:10195000791F8A1F911DA11D6A0F711D811D911D87
:10196000A11D20D009F468943F912AE0269F1124FC
:101970003019305D3193DEF6CF010895462F477060
:10198000405D4193B3E00FD0C9F7F6CF462F4F70BB
:10199000405D4A3318F0495D31FD4052419302D019
:1019A000A9F7EACFB4E0A6959795879577956795BF
:1019B000BA95C9F700976105710508959B01AC01BF
:1019C0000A2E06945795479537952795BA95C9F7E6
:1019D000620F731F841F951FA01D08952F923F92C1
:1019E0004F925F926F927F928F929F92AF92BF922F
:1019F000CF92DF92EF92FF920F931F93CF93DF93DB
:101A0000CDB7DEB7CA1BDB0B0FB6F894DEBF0FBE37
:101A1000CDBF09942A88398848885F846E847D8484
:101A20008C849B84AA84B984C884DF80EE80FD8086
:101A30000C811B81AA81B981CE0FD11D0FB6F894FC
:0E1A4000DEBF0FBECDBFED010895F894FFCFBD
:101A4E004354415054203D2025640020202000485E
:101A5E004542455048AEA620A841504FA7C421008C
:101A6E00A841504FA7C420A850A548B1542100004A
:101A7E0000484542455048AEA6204B4F4421000039
:101A8E0000004B4F4420A850A548B154210000003F
:101A9E000000005441A64D455020A4414441482128
:101AAE000000000020A5A15041204F4B4F48AB45F0
:101ABE004841210000A841504FA7C4204F43544134
:101ACE00484F424120A841504FA7C4204354415093
:101ADE005441202020A841504FA7C42041444DA579
:101AEE004841202020484F42AEA6204B4F44204173
:101AFE00444DA54841484F42AEA6204B4F4420438B
:101B0E005441505441484F42AEA6204B4F442043BF
:101B1E00544FA82020A441444154C4205441A64D02
:101B2E00455020202043544154A54354A54B4120F9
:101B3E00202020202042A5584F4420202020202065
:101B4E00202020202001013333332020202020208C
:101B5E00202020202020203335332020202020203C
:101B6E00202020202020203533352020202020202A
:101B7E00202020202020202B2B2B2B2B2B2B2B2DF2
:101B8E002D2D2D2D2D2D2D100E0000100E00004B85
:101B9E00A7B0AB20A8504FABA55441482100000080
:101BAE004FACA5A04B41204BA7B0AB41210000008C
:101BBE0000A850A5A74FA3A55445204BA7B0AB2115
:101BCE000000A0A94D20A0A94D20A0A94D20A0A99C
:101BDE004D2000012020A8504FA0A9A3444548A5A0
:101BEE00452E2E2E0020202042AE4BA7B0AB4548EE
:101BFE00A5452E2E2E003F065B4F666D7D077F6F2F
:101C0E00111213140104075802050800030609599E
:00000001FF
