:100000000C9446000C9465000C9465000C946500FB
:100010000C9465000C9465000C9465000C946500CC
:100020000C9465000C9465000C9465000C946500BC
:100030000C9465000C9465000C94B0010C94650060
:100040000C9465000C9465000C9465000C9465009C
:100050000C9465000C9465000C9465000C9465008C
:100060000C9465000C9465000C9465000C9465007C
:100070000C9465000C9465000C9465000C9465006C
:100080000C9465000C9465000C94650011241FBE4F
:10009000CFEFD0E1DEBFCDBF11E0A0E0B1E0E2EFF5
:1000A000F7E000E00BBF02C007900D92A83EB10739
:1000B000D9F711E0A8EEB1E001C01D92AF3FB10742
:1000C000E1F70E94E7010C94F7030C940000262F3F
:1000D000372FD901E82FF92F04C021919D912917BD
:1000E00031F49E2F981B9417C0F380E0089581E0AF
:1000F000089524E02EBD89E19CE09DBD8CBD27BF05
:1001000078940895C89908C08091EE01882321F061
:100110001092EE0181E00895C99908C08091EE0126
:10012000882321F01092EE0182E00895CA9908C058
:100130008091EE01882321F01092EE0183E0089572
:10014000CB9908C08091EE01882321F01092EE0136
:1001500084E00895CC9908C08091EE01882321F0B5
:100160001092EE0185E00895E9B389B369B349B30C
:1001700029B390E082709070F0E0E170F0708E2B07
:100180009F2B70E064707070862B972B50E0487046
:100190005070842B952B30E020713070822B932B84
:1001A0008F31910529F481E08093EE0180E008957C
:1001B00080E0089580E008951F93823009F46EC0B6
:1001C000843031F19091ED01903119F49FE09093DA
:1001D000ED019091ED01E92FF0E0E151FE4F805DDE
:1001E0008083892F8F5F8093ED0190E206C0E82F16
:1001F000F0E0E151FE4F90838F5F8031C0F380ECDF
:100200000E943A028FEE91E060E10E94D6029EC009
:100210008091E9018823D9F01092B40181E00E9415
:100220003A028091B40190E034E0880F991F3A952A
:10023000E1F78C5B9E4F60E10E94D602EFEEF1E0A9
:1002400080E2819391E0EF3FF907D9F723C09091C5
:10025000E8018091B401992331F08F5F8093B4015C
:10026000873041F405C08F5F8093B401833011F46F
:100270001092B40181E00E943A028091B40190E0B2
:1002800024E0880F991F2A95E1F78C5B9E4F60E16F
:100290000E94D602EFEEF1E080E251C01091B4016D
:1002A0001130C1F0113018F01230A1F72CC08FEED0
:1002B00091E065ED71E040E10E946700882399F4C8
:1002C00080EC0E943A0281E191E00E94A402109227
:1002D000E901E0CF8FEE91E065EC71E040E10E9432
:1002E0006700882331F080EC0E943A0280E091E0C0
:1002F00018C080EC0E943A0281E191E00E94A402C1
:100300001093E901C7CF8FEE91E065EB71E040E11A
:100310000E946700882341F080EC0E943A0282E24A
:1003200091E00E94A402B6CF80EC0E943A0283E3DF
:1003300091E00E94A40281E08093E801ABCF819319
:1003400091E0EF3FF907D9F71092ED0180E01F919E
:1003500008951BBA80E48ABB15BA87EF84BB089561
:100360001F920F920FB60F920BB60F9211242F937C
:100370003F934F935F936F937F938F939F93AF932D
:10038000BF93EF93FF938CE997EE9DBD8CBD84E006
:100390008EBD87BF0E9482008093EC01882311F0FC
:1003A0000E94DC00FF91EF91BF91AF919F918F91DF
:1003B0007F916F915F914F913F912F910F900BBE65
:1003C0000F900FBE0F901F90189580E008950E9427
:1003D000A9010E940A028CE00E943A0281E00E9478
:1003E0003A028091B40190E044E0880F991F4A9549
:1003F000E1F78C5B9E4F60E10E94D6020E9479007B
:10040000FFCFAA9A8FE99FE00197F1F700C00000A3
:10041000AA9808951F93A8988FEF93ECA9E08150B4
:100420009040A040E1F700C0000010E315BB90E150
:100430009A95F1F70E940102A0E1AA95F1F715BB88
:10044000B0E1BA95F1F70E94010280E18A95F1F7D7
:1004500015BB90E19A95F1F70E940102A0E1AA95DF
:10046000F1F780E285BBB0E1BA95F1F70E94010295
:100470001F910895DF93CF930F92CDB7DEB725B3C9
:10048000982F9F60206F922395BB90E19A95F1F78A
:10049000A898E0E1EA95F1F789830E940102EFEC68
:1004A000F7E03197F1F700C0000095B3898182959C
:1004B000807F9F70892B85BBF0E1FA95F1F7A898B2
:1004C00080E18A95F1F70E940102EFECF7E03197A5
:1004D000F1F700C000000F90CF91DF910895DF93F6
:1004E000CF930F92CDB7DEB725B3982F9F60206FC3
:1004F000922395BB90E19A95F1F7A89AE0E1EA95ED
:10050000F1F789830E940102EFECF7E03197F1F7F0
:1005100000C0000095B389818295807F9F70892BF0
:1005200085BBF0E1FA95F1F7A89A80E18A95F1F799
:100530000E940102EFECF7E03197F1F700C00000F4
:100540000F90CF91DF910895CF92DF92FF920F939A
:100550001F93DF93CF930F92CDB7DEB7F82E0F2DF9
:10056000192FCC24DD240DC0F80181918F019983CE
:100570000E946F02F0E1FA95F1F70894C11CD11CBA
:100580009981AF2DB92FFD0101900020E9F7319736
:10059000EA1BFB0BCE16DF0638F30F90CF91DF91ED
:1005A0001F910F91FF90DF90CF900895EF92FF92EF
:1005B0000F931F93CF93DF93082F192FC0E0D0E044
:1005C000E62EFF2409C0F80181918F010E946F027D
:1005D000F0E1FA95F1F72196CE15DF05A4F3DF914E
:1005E000CF911F910F91FF90EF9008954F925F92DE
:1005F0006F927F928F929F92AF92BF92CF92DF9233
:10060000EF92FF921F93DF93CF93CDB7DEB7A897FA
:100610000FB6F894DEBF0FBECDBF6B017C0197FF14
:100620000BC08DE20E946F02F094E094D094C094CD
:10063000C11CD11CE11CF11C10E02E010894411CCE
:10064000511C2AE0622E712C812C912C1F5FA12E4F
:10065000BB24AA0CBB1CA40CB51CC701B601A40189
:1006600093010E94A603F5017183608369017A01F9
:10067000C114D104E104F10449F70CC0E12FF0E00A
:10068000EE0FFF1FEC0DFD1D8081805D0E946F024B
:10069000115004C06E010894C11CD11C112371F7C4
:1006A000A8960FB6F894DEBF0FBECDBFCF91DF91F5
:1006B0001F91FF90EF90DF90CF90BF90AF909F90F1
:1006C0008F907F906F905F904F9008951F936AE096
:1006D00070E00E949303182F862F805D0E946F02A6
:1006E000812F805D0E946F021F91089580E80E9413
:1006F0003A020895CF93DF93C8E2D0E080EC0E94E5
:100700003A022197D9F7DF91CF9108958130910571
:1007100029F4AD9A85B3806284BB0895009711F4E3
:10072000AD98A598089597FB092E07260AD077FD66
:1007300004D027D006D000201AF4709561957F4F21
:100740000895F6F7909581959F4F089597FB092E90
:1007500005260ED057FD04D028D00AD0001C38F44E
:1007600050954095309521953F4F4F4F5F4F0895DD
:10077000F6F790958095709561957F4F8F4F9F4FBD
:100780000895AA1BBB1B51E107C0AA1FBB1FA617D8
:10079000B70710F0A61BB70B881F991F5A95A9F72A
:1007A00080959095BC01CD010895A1E21A2EAA1B57
:1007B000BB1BFD010DC0AA1FBB1FEE1FFF1FA21711
:1007C000B307E407F50720F0A21BB30BE40BF50B0E
:1007D000661F771F881F991F1A9469F76095709597
:1007E000809590959B01AC01BD01CF010895F894CF
:0207F000FFCF39
:1007F20057726F6E6720436F64652120202020208E
:1008020000436F6465204F4B2120202020202020B0
:10081200200057726F6E672050617373776F726436
:1008220021200050617373776F7264204F4B212037
:1008320020202000456E7465722053544F5020636F
:100842006F646520456E7465722053544152542082
:10085200636F6465456E7465722041646D696E20D4
:10086200636F64655345542041646D696E20636F04
:100872006465202053455420535441525420636FE1
:10088200646520205345542053544F5020636F64B5
:10089200652020205345542054696D657220202024
:1008A2002020202001313131202020202020202032
:1008B20020202020203133352020202020202020FD
:1008C20020202020203533312020202020202020ED
:0808D20020202020203C000042
:00000001FF
