:100000000C9446000C9465000C9465000C946500FB
:100010000C9465000C9465000C9465000C946500CC
:100020000C9465000C9465000C9465000C946500BC
:100030000C9465000C9465000C943A020C946500D5
:100040000C9465000C9465000C9465000C9465009C
:100050000C9465000C9465000C9465000C9465008C
:100060000C9465000C9465000C9465000C9465007C
:100070000C9465000C9465000C9465000C9465006C
:100080000C9465000C9465000C94650011241FBE4F
:10009000CFEFD0E1DEBFCDBF12E0A0E0B1E0E8E6F7
:1000A000F9E000E00BBF02C007900D92AA30B10743
:1000B000D9F712E0AAE0B2E001C01D92A432B10764
:1000C000E1F70E947C020C94B2040C940000262FED
:1000D000372FD901E82FF92F04C021919D912917BD
:1000E00031F49E2F981B9417C0F380E0089581E0AF
:1000F0000895282F392FD901862F972FFC0180E0F2
:1001000003C09D9191938F5F8417D8F3089524E0E5
:100110002EBD89E19CE09DBD8CBD27BF78940895DC
:10012000C99908C080911302882321F0109213020C
:1001300082E00895CA9908C080911302882321F0B3
:100140001092130283E00895CB9908C080911302A6
:10015000882321F01092130284E00895CC9908C0FE
:1001600080911302882321F01092130285E00895F4
:1001700069B389B349B329B390E08470907070E09B
:1001800062707070862B972B50E048705070842BF3
:10019000952B30E020713070822B932B8E3191059E
:1001A00029F481E08093130280E0089580E00895AF
:1001B00080E0089510920B0210920C0281E00E94E0
:1001C000CF0280E091E060E10E946B030895089502
:1001D000C89908C080911202882321F0109212025F
:1001E00081E00895C89B05C081E08093120280E001
:1001F000089580E00895813001F580910B028823F5
:1002000029F00E94DA0010920D0215C010920D0222
:1002100082E08093D60181E00E94CF028091D601D6
:1002200090E024E0880F991F2A95E1F78A599E4FA4
:1002300060E10E946B0381E0089580E008951F93C0
:10024000823009F46BC0843031F190911102903109
:1002500019F49FE09093110290911102E92FF0E0C0
:10026000EC5EFD4F805D8083892F8F5F809311024C
:1002700090E206C0E82FF0E0EC5EFD4F90838F5FC8
:100280008031C0F380EC0E94CF0284E192E060E113
:100290000E946B03E5C080910C028823D9F0109274
:1002A000D60181E00E94CF028091D60190E044E027
:1002B000880F991F4A95E1F78A599E4F60E10E9485
:1002C0006B03E4E1F2E080E2819392E0E432F9072B
:1002D000D9F720C080910A02882349F08091D60185
:1002E0008F5F8093D601873029F483E001C081E0DD
:1002F0008093D60181E00E94CF028091D60190E0E8
:1003000034E0880F991F3A95E1F78A599E4F60E1D2
:100310000E946B03E4E1F2E080E29BC01091D60101
:10032000133009F45AC0143028F41130F9F01230A7
:10033000C0F509C0153009F462C0153008F45AC080
:10034000163041F769C084E192E067EF71E040E167
:100350000E946700882399F480EC0E94CF0282E219
:1003600091E00E94390310920C02D4CF84E192E014
:1003700067EE71E040E10E946700882331F080EC75
:100380000E94CF0281E191E01AC080EC0E94CF026E
:1003900082E291E00E94390310930C0210930B0249
:1003A000B9CF84E192E067ED71E040E10E9467001F
:1003B000882341F080EC0E94CF0283E391E00E9409
:1003C0003903A8CF80EC0E94CF0284E491E00E9420
:1003D000390381E080930A029DCF84E192E067EDCA
:1003E00071E040E10E94790080EC0E94CF0284E439
:1003F00091E0E5CF84E192E067EE71E004C084E132
:1004000092E067EF71E040E10E94790080EC0E9489
:10041000CF0282E291E0D3CFE4E1F2E0808180324A
:1004200009F41082319682E0E432F807B9F7CF017F
:1004300040970E948C04909308028093070280ECFE
:100440000E94CF0285E591E00E94390310920A02D2
:1004500061CF819392E0E432F907D9F7109211024B
:1004600080E01F9108951BBA80E48ABB15BA87EF1C
:1004700084BB08951F920F920FB60F920BB60F9286
:1004800011242F933F934F935F936F937F938F9399
:100490009F93AF93BF93EF93FF938CE997EE9DBD2E
:1004A0008CBD84E08EBD87BF80910D02882329F426
:1004B0000E94E80080930D0202C00E94FB000E948F
:1004C000900080931002882311F00E941F01FF9179
:1004D000EF91BF91AF919F918F917F916F915F91BC
:1004E0004F913F912F910F900BBE0F900FBE0F9029
:1004F0001F90189580E008950E9433020E949F0289
:100500008CE00E94CF0281E00E94CF028091D60150
:1005100090E054E0880F991F5A95E1F78A599E4F51
:1005200060E10E946B030E948700FFCFAA9A8FE9C7
:100530009FE00197F1F700C00000AA9808951F936B
:10054000A8988FEF93ECA9E081509040A040E1F78C
:1005500000C0000010E315BB90E19A95F1F70E94EE
:100560009602A0E1AA95F1F715BBB0E1BA95F1F7B3
:100570000E94960280E18A95F1F715BB90E19A9569
:10058000F1F70E949602A0E1AA95F1F780E285BBFF
:10059000B0E1BA95F1F70E9496021F910895DF939A
:1005A000CF930F92CDB7DEB725B3982F9F60206F02
:1005B000922395BB90E19A95F1F7A898E0E1EA952E
:1005C000F1F789830E949602EFECF7E03197F1F79B
:1005D00000C0000095B389818295807F9F70892B30
:1005E00085BBF0E1FA95F1F7A89880E18A95F1F7DB
:1005F0000E949602EFECF7E03197F1F700C000009F
:100600000F90CF91DF910895DF93CF930F92CDB7E5
:10061000DEB725B3982F9F60206F922395BB90E1A2
:100620009A95F1F7A89AE0E1EA95F1F789830E949B
:100630009602EFECF7E03197F1F700C0000095B3B8
:1006400089818295807F9F70892B85BBF0E1FA9527
:10065000F1F7A89A80E18A95F1F70E949602EFECF3
:10066000F7E03197F1F700C000000F90CF91DF91D4
:100670000895CF92DF92FF920F931F93DF93CF9352
:100680000F92CDB7DEB7F82E0F2D192FCC24DD2415
:100690000DC0F80181918F0199830E940403F0E15C
:1006A000FA95F1F70894C11CD11C9981AF2DB92F8F
:1006B000FD0101900020E9F73197EA1BFB0BCE16F4
:1006C000DF0638F30F90CF91DF911F910F91FF90CC
:1006D000DF90CF900895EF92FF920F931F93CF93E7
:1006E000DF93082F192FC0E0D0E0E62EFF2409C0C9
:1006F000F80181918F010E940403F0E1FA95F1F76E
:100700002196CE15DF05A4F3DF91CF911F910F91B4
:10071000FF90EF9008954F925F926F927F928F9229
:100720009F92AF92BF92CF92DF92EF92FF921F9370
:10073000DF93CF93CDB7DEB7A8970FB6F894DEBF9F
:100740000FBECDBF6B017C0197FF0BC08DE20E94F5
:100750000403F094E094D094C094C11CD11CE11C1B
:10076000F11C10E02E010894411C511C2AE0622E5D
:10077000712C812C912C1F5FA12EBB24AA0CBB1CB9
:10078000A40CB51CC701B601A40193010E943B044F
:10079000F5017183608369017A01C114D104E10418
:1007A000F10449F70CC0E12FF0E0EE0FFF1FEC0D54
:1007B000FD1D8081805D0E940403115004C06E0104
:1007C0000894C11CD11C112371F7A8960FB6F89498
:1007D000DEBF0FBECDBFCF91DF911F91FF90EF9095
:1007E000DF90CF90BF90AF909F908F907F906F9051
:1007F0005F904F9008951F936AE070E00E94280474
:10080000182F862F805D0E940403812F805D0E9437
:1008100004031F91089580E80E94CF020895CF93AA
:10082000DF93C8E2D0E080EC0E94CF022197D9F795
:10083000DF91CF9108958130910529F4AD9A85B368
:10084000806284BB0895009711F4AD98A59808952F
:1008500097FB092E07260AD077FD04D027D006D0B3
:1008600000201AF4709561957F4F0895F6F79095E2
:1008700081959F4F089597FB092E05260ED057FDB1
:1008800004D028D00AD0001C38F4509540953095FB
:1008900021953F4F4F4F5F4F0895F6F79095809504
:1008A000709561957F4F8F4F9F4F0895AA1BBB1B7B
:1008B00051E107C0AA1FBB1FA617B70710F0A61B60
:1008C000B70B881F991F5A95A9F780959095BC0181
:1008D000CD010895A1E21A2EAA1BBB1BFD010DC07C
:1008E000AA1FBB1FEE1FFF1FA217B307E407F507E0
:1008F00020F0A21BB30BE40BF50B661F771F881FBC
:10090000991F1A9469F760957095809590959B0151
:10091000AC01BD01CF010895FC0188279927E89417
:1009200021912032E9F3293010F02E30C8F32B3218
:1009300041F02D3239F4689404C00E94AA04820F59
:10094000911D219120532A30C0F31EF4909581957A
:100950009F4F08957AE0979F902D879F802D910D4E
:0809600011240895F894FFCF63
:1009680020202047414D45204F5645522120202028
:100978000057726F6E6720436F6465212020202026
:100988002000436F6465204F4B2120202020202029
:1009980020200057726F6E672050617373776F72F3
:1009A8006421200050617373776F7264204F4B216C
:1009B800202020200054696D657220736574206FB3
:1009C8006B2120202000456E7465722053544F50CF
:1009D80020636F646520456E7465722053544152DC
:1009E8005420636F6465456E7465722041646D6957
:1009F8006E20636F64655345542041646D696E20B1
:100A0800636F646520205345542053544152542049
:100A1800636F646520205345542053544F5020631E
:100A28006F64652020205345542054696D657220F9
:100A38002020202020200133333320202020202094
:100A48002020202020202033353320202020202063
:100A58002020202020202035333520202020202051
:0A0A6800202020202020203C000068
:00000001FF
