:100000000C9446000C9465000C9465000C946500FB
:100010000C9465000C9465000C9465000C946500CC
:100020000C9465000C9465000C9465000C946500BC
:100030000C9465000C9465000C9404030C9465000A
:100040000C9465000C9465000C9465000C9465009C
:100050000C9465000C9465000C9465000C9465008C
:100060000C9465000C9465000C9465000C9465007C
:100070000C9465000C9450030C9465000C9465007E
:100080000C9465000C9465000C94650011241FBE4F
:10009000CFEFD0E1DEBFCDBF12E0A0E0B1E0EEE9EE
:1000A000F2E100E00BBF02C007900D92A032B10751
:1000B000D9F712E0A0E2B2E001C01D92AD33B10762
:1000C000E1F70E94F7030C944D090C940000262FD1
:1000D000372FD901E82FF92F04C021919D912917BD
:1000E00031F49E2F981B9417C0F380E0089581E0AF
:1000F0000895282F392FD901862F972FFC0180E0F2
:1001000003C09D9191938F5F8417D8F3089584E085
:100110008EBD89E19CE09DBD8CBD87B7846087BFA3
:100120007894089584E080938A0089E19CE090931C
:10013000890080938800EDE7F0E08081846080830F
:1001400078940895C99908C080912C02882321F0E1
:1001500010922C0282E00895CA9908C080912C0266
:10016000882321F010922C0283E00895CB9908C0D7
:1001700080912C02882321F010922C0284E00895B3
:10018000CC9908C080912C02882321F010922C0277
:1001900085E0089569B389B349B329B390E08470C9
:1001A000907070E062707070862B972B50E04870F2
:1001B0005070842B952B30E020713070822B932B64
:1001C0008E31910529F481E080932C0280E008951E
:1001D00080E008950F931F93DF93CF93CDB7DEB7E1
:1001E00060970FB6F894DEBF0FBECDBF2DB73EB7F8
:1001F000285030400FB6F8943EBF0FBE2DBFEDB76C
:10020000FEB731968E010F5F1F4FADB7BEB7129686
:100210001C930E93119720E031E033832283648393
:100220007583868397830E9433062DB73EB7285F78
:100230003F4F0FB6F8943EBF0FBE2DBF80E80E941F
:100240005004C8010E94BA0480E060960FB6F8948A
:10025000DEBF0FBECDBFCF91DF911F910F910895EB
:10026000109221021092220281E00E94500483E049
:1002700091E060E10E94EC0480911B0290911C02CD
:10028000A0911D02B0911E0280932402909325023A
:10029000A0932602B0932702DE9A089510922202BC
:1002A000DE9A0895CF93DF931092220210922102DA
:1002B00080911B0290911C02A0911D02B0911E0220
:1002C0008093240290932502A0932602B0932702E4
:1002D00081E00E945004C4E1D1E0CE010E94BA0442
:1002E00080EC0E945004CE010E94BA04DE9ADF9195
:1002F000CF910895C89908C080912B02882321F0DE
:1003000010922B0281E00895C89B05C081E0809384
:100310002B0280E0089580E00895813001F58091FE
:100320002102882329F00E9430011092230215C077
:100330001092230282E08093EA0181E00E9450043F
:100340008091EA0190E024E0880F991F2A95E1F757
:1003500086589E4F60E10E94EC0481E0089580E0A1
:1003600008951F93823009F46BC0843031F190916D
:100370002A02903119F49FE090932A0290912A0268
:10038000E92FF0E0E35DFD4F805D8083892F8F5F73
:1003900080932A0290E206C0E82FF0E0E35DFD4F73
:1003A00090838F5F8031C0F380EC0E9450048DE217
:1003B00092E060E10E94EC041DC18091220288233A
:1003C000D9F01092EA0181E00E9450048091EA0184
:1003D00090E044E0880F991F4A95E1F786589E4FB8
:1003E00060E10E94EC04EDE2F2E080E2819392E0B1
:1003F000ED33F907D9F720C080912002882349F016
:100400008091EA018F5F8093EA01873029F483E0CD
:1004100001C081E08093EA0181E00E945004809154
:10042000EA0190E034E0880F991F3A95E1F7865889
:100430009E4F60E10E94EC04EDE2F2E080E2D3C066
:100440001091EA01133009F45AC0143028F4113025
:10045000F9F01230C0F509C0153009F477C0153035
:1004600008F465C0163041F789C08DE292E06BE078
:1004700072E040E10E946700882399F480EC0E94BA
:10048000500486E391E00E94BA040E944E01D4CF4A
:100490008DE292E06BEF71E040E10E9467008823FB
:1004A00031F080EC0E94500485E291E01AC080ECAB
:1004B0000E94500486E391E00E94BA041093220245
:1004C00010932102B9CF8DE292E06BEE71E040E132
:1004D0000E946700882341F080EC0E94500487E46A
:1004E00091E00E94BA04A8CF80EC0E94500488E5F5
:1004F00091E00E94BA0481E0809320029DCF8DE2BA
:1005000092E06BEE71E040E10E94790081E080931F
:1005100029028BEE91E061E070E040E150E00E9442
:10052000890880EC0E94500488E591E0DACF8DE2E2
:1005300092E06BEF71E040E10E94790081E18093ED
:1005400029028BEF91E061E170E00EC08DE292E054
:100550006BE072E040E10E94790081E28093290221
:100560008BE092E061E270E040E150E00E94890897
:1005700080EC0E94500486E391E0B3CFEDE2F2E01C
:100580008081803209F41082319682E0ED33F807E1
:10059000B9F7CF0140970E940D06AC01662757FDC1
:1005A0006095762F40931B0250931C0260931D02AE
:1005B00070931E02409324025093250260932602FA
:1005C0007093270281E38093290281E390E00E94E7
:1005D000A00880EC0E94500489E691E00E94BA04D1
:1005E0001092200229CF819392E0ED33F907D9F7D9
:1005F00010922A0280E01F9108951BBA80EC8ABBFA
:1006000015BA87EF84BB08951F920F920FB60F9211
:100610000BB60F9211242F933F934F935F936F93D9
:100620007F938F939F93AF93BF93EF93FF938CE947
:1006300097EE9DBD8CBD84E08EBD87B7846087BF7B
:1006400060912402709125028091260290912702E8
:100650000E94EA0080912302882329F40E947A01F3
:100660008093230202C00E948D010E94A200809309
:100670002802882311F00E94B101FF91EF91BF91F0
:10068000AF919F918F917F916F915F914F913F912A
:100690002F910F900BBE0F900FBE0F901F901895CB
:1006A0001F920F920FB60F920BB60F9211242F9339
:1006B0003F934F935F936F937F938F939F93AF93EA
:1006C000BF93EF93FF9389E19CE09093890080931F
:1006D000880080917D00846080937D00809122025B
:1006E0008823E9F08091240290912502A0912602AE
:1006F000B09127020197A109B10980932402909338
:100700002502A0932602B09327020097A105B10508
:1007100011F40E9452018BB390E489278BBBFF91A7
:10072000EF91BF91AF919F918F917F916F915F9169
:100730004F913F912F910F900BBE0F900FBE0F90D6
:100740001F9018958BEE91E061E070E040E150E081
:100750000E9473088BEF91E061E170E040E150E0AE
:100760000E9473088BE092E061E270E040E150E0AB
:100770000E94730881E390E00E94830860931B024B
:1007800070931C0280931D0290931E0260932402BA
:1007900070932502809326029093270280E00895AB
:1007A000C89924C08BEE91E061E070E040E150E038
:1007B0000E9489088BEF91E061E170E040E150E038
:1007C0000E9489088BE092E061E270E040E150E035
:1007D0000E94890840911B0250911C0260911D02E9
:1007E00070911E0281E390E00E94A00808950E948B
:1007F000FD020E94D0030E94A2030E9420048CE00C
:100800000E94500481E00E9450048091EA0190E02F
:1008100054E0880F991F5A95E1F786589E4F60E182
:100820000E94EC040E9487000E949200FFCFAA9AC7
:100830008FE99FE00197F1F700C00000AA980895A2
:100840001F93A8988FEF93ECA9E081509040A040AF
:10085000E1F700C0000010E315BB90E19A95F1F7B5
:100860000E941704A0E1AA95F1F715BBB0E1BA9573
:10087000F1F70E94170480E18A95F1F715BB90E12A
:100880009A95F1F70E941704A0E1AA95F1F780E28A
:1008900085BBB0E1BA95F1F70E9417041F91089546
:1008A000DF93CF930F92CDB7DEB725B3982F9F601C
:1008B000206F922395BB90E19A95F1F7A898E0E11B
:1008C000EA95F1F789830E941704EFECF7E031977E
:1008D000F1F700C0000095B389818295807F9F70F9
:1008E000892B85BBF0E1FA95F1F7A89880E18A950C
:1008F000F1F70E941704EFECF7E03197F1F700C031
:1009000000000F90CF91DF910895DF93CF930F9266
:10091000CDB7DEB725B3982F9F60206F922395BB8C
:1009200090E19A95F1F7A89AE0E1EA95F1F78983C9
:100930000E941704EFECF7E03197F1F700C00000D8
:1009400095B389818295807F9F70892B85BBF0E16B
:10095000FA95F1F7A89A80E18A95F1F70E941704B9
:10096000EFECF7E03197F1F700C000000F90CF9166
:10097000DF910895CF92DF92FF920F931F93DF9341
:10098000CF930F92CDB7DEB7F82E0F2D192FCC24B1
:10099000DD240DC0F80181918F0199830E948504A7
:1009A000F0E1FA95F1F70894C11CD11C9981AF2DA3
:1009B000B92FFD0101900020E9F73197EA1BFB0BED
:1009C000CE16DF0638F30F90CF91DF911F910F9174
:1009D000FF90DF90CF900895EF92FF920F931F93B7
:1009E000CF93DF93082F192FC0E0D0E0E62EFF242D
:1009F00009C0F80181918F010E948504F0E1FA9508
:100A0000F1F72196CE15DF05A4F3DF91CF911F9169
:100A10000F91FF90EF9008954F925F926F927F92A7
:100A20008F929F92AF92BF92CF92DF92EF92FF92FE
:100A30001F93DF93CF93CDB7DEB7A8970FB6F89487
:100A4000DEBF0FBECDBF6B017C0197FF0BC08DE2F7
:100A50000E948504F094E094D094C094C11CD11CF1
:100A6000E11CF11C10E02E010894411C511C2AE0ED
:100A7000622E712C812C912C1F5FA12EBB24AA0CFD
:100A8000BB1CA40CB51CC701B601A40193010E94B4
:100A9000BC05F5017183608369017A01C114D10439
:100AA000E104F10449F70CC0E12FF0E0EE0FFF1F65
:100AB000EC0DFD1D8081805D0E948504115004C0F5
:100AC0006E010894C11CD11C112371F7A8960FB6B2
:100AD000F894DEBF0FBECDBFCF91DF911F91FF9085
:100AE000EF90DF90CF90BF90AF909F908F907F90CE
:100AF0006F905F904F9008951F936AE070E00E949E
:100B0000A905182F862F805D0E948504812F805DA6
:100B10000E9485041F91089580E80E945004089562
:100B2000CF93DF93C8E2D0E080EC0E94500421977D
:100B3000D9F7DF91CF9108958130910529F4AD9ACD
:100B400085B3806284BB0895009711F4AD98A59891
:100B5000089597FB092E07260AD077FD04D027D0E9
:100B600006D000201AF4709561957F4F0895F6F72E
:100B7000909581959F4F089597FB092E05260ED0DD
:100B800057FD04D028D00AD0001C38F45095409569
:100B9000309521953F4F4F4F5F4F0895F6F7909551
:100BA0008095709561957F4F8F4F9F4F0895AA1B39
:100BB000BB1B51E107C0AA1FBB1FA617B70710F048
:100BC000A61BB70B881F991F5A95A9F7809590957A
:100BD000BC01CD010895A1E21A2EAA1BBB1BFD0189
:100BE0000DC0AA1FBB1FEE1FFF1FA217B307E4070C
:100BF000F50720F0A21BB30BE40BF50B661F771F64
:100C0000881F991F1A9469F7609570958095909543
:100C10009B01AC01BD01CF010895FC0188279927F4
:100C2000E89421912032E9F3293010F02E30C8F3F6
:100C30002B3241F02D3239F4689404C00E942B0607
:100C4000820F911D219120532A30C0F31EF49095FC
:100C500081959F4F08957AE0979F902D879F802DD3
:100C6000910D112408950F931F93DF93CF93CDB768
:100C7000DEB72E970FB6F894DEBF0FBECDBF0D893D
:100C80001E8986E08C831A8309838FEF9FE79E83FA
:100C90008D839E01275E3F4FCE0101966F89788D2F
:100CA000A9010E946306EF81F885E00FF11F108211
:100CB0002E960FB6F894DEBF0FBECDBFCF91DF9159
:100CC0001F910F9108952F923F924F925F926F92D2
:100CD0007F928F929F92AF92BF92CF92DF92EF92CC
:100CE000FF920F931F93DF93CF93CDB7DEB72C976F
:100CF0000FB6F894DEBF0FBECDBF6C011B018A0199
:100D0000FC0117821682838181FFD1C12E010894D4
:100D1000411C511CF6019381F10193FD859193FFD4
:100D200081911F01882309F4BEC1853239F493FDF6
:100D3000859193FF81911F01853229F490E0B601DE
:100D40000E94C308E7CFEE24FF2420E02032B0F455
:100D50008B3269F08C3228F4803251F0833271F496
:100D60000BC08D3239F0803349F421602CC02260F1
:100D7000246029C0286027C0206125C027FD2CC021
:100D8000382F30533A3098F426FF08C08E2D880F44
:100D9000E82EEE0CEE0CE80EE30E15C08F2D880F3A
:100DA000F82EFF0CFF0CF80EF30E20620CC08E32F2
:100DB00021F426FD78C1206406C08C3611F4206829
:100DC00002C0883649F4F10193FD859193FF81912A
:100DD0001F01882309F0BACF982F9554933018F04B
:100DE0009052933028F40C5F1F4FFFE3F9830DC03E
:100DF000833631F0833771F0833509F060C022C04B
:100E0000F801808189830E5F1F4F420171E0A72E98
:100E1000B12C16C062E0662E712C600E711EF801B6
:100E20008080918026FF03C06E2D70E002C06FEFBE
:100E30007FEFC4012C870E94B8085C0183012C85D8
:100E40002F7717C052E0652E712C600E711EF801CD
:100E50008080918026FF03C06E2D70E002C06FEF8E
:100E60007FEFC4012C870E94AD085C012C852068AF
:100E7000830123FD20C008C080E290E0B6012C87EA
:100E80000E94C308FA942C858F2D90E0A816B9060D
:100E900098F311C0F40127FD859127FF81914F013F
:100EA00090E0B6012C870E94C3082C85F110FA94BB
:100EB0000894A108B108A114B10461F7F1C0843607
:100EC00011F0893649F527FF08C0F801608171816A
:100ED000828193810C5F1F4F09C0F801608171818D
:100EE000882777FD8095982F0E5F1F4F4FE6B42E11
:100EF000B22297FF09C090958095709561957F4FBC
:100F00008F4F9F4FF0E8BF2AA2012AE030E00E94F5
:100F1000EF08782E741845C0853731F43FEEB32EB4
:100F2000B2222AE030E025C099EFB92EB2228F36E6
:100F3000C1F0803720F4883509F0B5C00DC0803786
:100F400021F0883709F0AFC002C020E1B22AB4FE18
:100F50000BC084E0B82A08C0B4FE09C0E6E0BE2A8F
:100F600006C028E030E005C020E130E002C020E10A
:100F700032E0B7FE08C0F8016081718182819381FF
:100F80000C5F1F4F07C0F8016081718180E090E025
:100F90000E5F1F4FA2010E94EF08782E7418FFE722
:100FA000BF22B6FE0BC02EEFB2227E1438F4B4FE80
:100FB00007C0B2FC05C08FEEB82202C0A72C01C04A
:100FC000AE2C8B2D90E0B4FE0DC0FE01E70DF11D9F
:100FD0002081203319F4E9EEBE2209C0A394B2FEA9
:100FE00006C004C086789070009709F0A3948B2CFB
:100FF0009924B3FC14C0B0FE0FC0AF1428F4E72C42
:10100000EF0CEA18AF2C08C0E72C06C080E290E095
:10101000B6010E94C308A394AF14C0F304C0AF1478
:1010200010F4FA1801C0FF2484FE0FC080E390E0A2
:10103000B6010E94C30882FE1FC081FE03C088E57E
:1010400090E010C088E790E00DC0C40186789070F1
:10105000009791F081FC02C080E201C08BE2B7FCF6
:101060008DE290E0B6010E94C30806C080E390E0E4
:10107000B6010E94C308EA947E14C0F37A94F20188
:10108000E70DF11D808190E0B6010E94C308772032
:10109000A9F706C080E290E0B6010E94C308FA9466
:1010A000FF20C1F737CEF6012681378102C02FEF2E
:1010B0003FEFC9012C960FB6F894DEBF0FBECDBF2F
:1010C000CF91DF911F910F91FF90EF90DF90CF9024
:1010D000BF90AF909F908F907F906F905F904F9058
:1010E0003F902F900895DC01CB01FC01E199FECFE8
:1010F00006C0FFBBEEBBE09A31960DB20D92415097
:101100005040B8F70895A6E1B0E044E050E00C94F8
:101110007508DC01CB0103C02D910E949408415059
:101120005040D0F70895262FE199FECF9FBB8EBB8C
:101130002DBB0FB6F894E29AE19A0FBE019608957E
:10114000242F0E949408252F0E9494080C94A8082C
:101150000E949308272F0C949408FC01059061507D
:1011600070400110D8F7809590958E0F9F1F0895BD
:10117000FC016150704001900110D8F78095909566
:101180008E0F9F1F08950F931F93CF93DF938C01B2
:10119000EB018B8181FF1BC082FF0DC02E813F813F
:1011A0008C819D812817390764F4E881F9810193C6
:1011B000F983E88306C0E885F985802F09950097B3
:1011C00031F48E819F8101969F838E8302C00FEF41
:1011D0001FEFC801DF91CF911F910F910895FA0180
:1011E000AA27283051F1203181F1E8946F936E7F66
:1011F0006E5F7F4F8F4F9F4FAF4FB1E03ED0B4E057
:101200003CD0670F781F891F9A1FA11D680F791F97
:101210008A1F911DA11D6A0F711D811D911DA11DA8
:1012200020D009F468943F912AE0269F11243019B8
:10123000305D3193DEF6CF010895462F4770405D53
:101240004193B3E00FD0C9F7F6CF462F4F70405D02
:101250004A3318F0495D31FD4052419302D0A9F75D
:10126000EACFB4E0A6959795879577956795BA9557
:10127000C9F700976105710508959B01AC010A2E1D
:1012800006945795479537952795BA95C9F7620FF4
:0E129000731F841F951FA01D0895F894FFCFB3
:10129E0025640020202047414D45204F56455221C0
:1012AE002020200020424F4F4D20424F4F4D2042D4
:1012BE004F4F4D200057726F6E6720436F6465214C
:1012CE00202020202000436F6465204F4B212020DA
:1012DE002020202020200057726F6E6720506173EF
:1012EE0073776F726421200050617373776F72642D
:1012FE00204F4B21202020200054696D65722073F1
:10130E006574206F6B2120202000456E746572205D
:10131E0053544F5020636F646520456E7465722080
:10132E00535441525420636F6465456E7465722048
:10133E0041646D696E20636F64655345542041644A
:10134E006D696E20636F646520205345542053549D
:10135E0041525420636F64652020534554205354EA
:10136E004F5020636F6465202020534554205469EC
:10137E006D65722020202020202001333333202061
:10138E002020202020202020202020333533202014
:10139E002020202020202020202020353335202002
:1013AE002020202020202020202020100E000000B1
:00000001FF
