:100000000C9446000C9463000C9463000C94630001
:100010000C9463000C9463000C9463000C946300D4
:100020000C9463000C9463000C9463000C946300C4
:100030000C9463000C9463000C94AE030C94630066
:100040000C94ED030C9463000C9463000C94630017
:100050000C9463000C9463000C9463000C94630094
:100060000C9463000C9463000C9463000C94630084
:100070000C9463000C9477030C9463000C9463005D
:100080000C9463000C9463000C94630011241FBE55
:10009000CFEFD0E1DEBFCDBF12E0A0E0B1E0E6E3FC
:1000A000F2E102C005900D92A237B107D9F712E034
:1000B000A2E7B2E001C01D92A33DB107E1F70E94A3
:1000C00064050C9419090C940000262F372FD901D0
:1000D000E82FF92F04C021919D91291731F49E2F0B
:1000E000981B9417C0F380E0089581E00895282FAD
:1000F000392FD901862F972FFC0180E003C09D91F5
:1001000091938F5F8417D8F308958FEF8093460201
:1001100080934702809348028093490280934A0269
:1001200080934B0280934C0280934D0208950E946D
:10013000EA07882339F090915602992339F01092FA
:100140005602089591E090935602089580E0089534
:100150008A3030F4E82FF0E0E95AFD4F808101C089
:1001600080E0611180680895EF92FF920F931F93D2
:10017000CF93DF930BE812E0C0E0D0E081E0E82EFF
:10018000F12CC7010C2E02C0880F991F0A94E2F7C8
:100190008BBBCE018170682FF80181918F010E9485
:1001A000A80083B9F2E4FA95F1F700C01BBA13B8BE
:1001B00026E02A95F1F700C02196C730D10509F74E
:1001C00080E0DF91CF911F910F91FF90EF90089504
:1001D000109273021092740281E00E94BB0580E0CD
:1001E00091E00E94150680914E0290914F02A091DD
:1001F0005002B09151028093520290935302A09307
:100200005402B0935502C6988FEB97E2A9E0815053
:100210009040A040E1F700C00000089510927402E1
:10022000C69A0895CF93DF931092740210927302CE
:1002300080914E0290914F02A0915002B0915102D4
:100240008093520290935302A0935402B0935502AC
:1002500081E00E94BB05CEE0D1E0CE010E941506F0
:1002600080EC0E94BB05CE010E941506C6988E9AAE
:10027000969A8FE392E4AFE081509040A040E1F77E
:1002800000C00000DF91CF91089586E492E068E01D
:100290000E94B007882369F086E492E06EE372E082
:1002A00048E00E946500882331F40E94850081E0C7
:1002B000089580E0089580E00895813001F58091EF
:1002C0007302882329F00E94E8001092750215C07D
:1002D0001092750282E080930D0281E00E94BB05BE
:1002E00080910D0290E024E0880F991F2A95E1F794
:1002F00083569E4F60E10E94460681E0089580E0AB
:100300000895CF92DF92EF92FF920F931F93DF93A6
:10031000CF9300D000D000D0CDB7DEB7982F98553E
:10032000923030F190917A02903119F49FE09093DD
:100330007A0290917A02E92FF0E0E558FD4F805D56
:100340008083892F8F5F80937A0290E206C0E82F26
:10035000F0E0E558FD4F90838F5F8031C0F380EC73
:100360000E94BB058BE792E060E10E94460674C1E3
:10037000893509F044C01092780280917402882374
:10038000E9F010920D0281E00E94BB0580910D0200
:1003900090E054E0880F991F5A95E1F783569E4FDD
:1003A00060E10E944606EBE7F2E080E2819392E092
:1003B000EB38F907D9F710927A0240C180917202A6
:1003C000882349F080910D028F5F80930D02873062
:1003D00029F483E001C081E080930D0281E00E9456
:1003E000BB0580910D0290E044E0880F991F4A956B
:1003F000E1F783569E4F60E10E9446061FC10091BF
:100400000D02033009F46EC0043030F4013059F1AC
:10041000023008F04DC00AC0053009F48AC005302A
:1004200008F478C0063009F009C19DC080917802B7
:100430008F5F80937802833009F000C110927802B8
:100440008BE792E06EE272E040E10E946500882353
:10045000E9F480EC0E94BB0580E391E00E94150660
:100460000E940E01E8C0809178028F5F809378022D
:10047000833009F0E3C0109278028BE792E06EE1DE
:1004800072E040E10E946500882331F080EC0E9418
:10049000BB058FE191E064C080EC0E94BB0580E366
:1004A00091E00E9415060093740200937302C3C08A
:1004B0008BE792E06EE072E040E10E9465008823E5
:1004C00031F080EC0E94BB0581E491E049C080ECF2
:1004D0000E94BB0582E591E00E94150681E08093B1
:1004E0007202ACC08BE792E06EE072E040E10E94E5
:1004F000770081E0809379028EE092E061E070E025
:1005000040E150E00E94F50880EC0E94BB0582E5C6
:1005100091E026C08BE792E06EE172E040E10E943C
:10052000770081E1809379028EE192E061E170E0F1
:100530000EC08BE792E06EE272E040E10E9477002D
:1005400081E2809379028EE292E061E270E040E124
:1005500050E00E94F50880EC0E94BB0580E391E02A
:100560000E9415066BC00BE712E0F8018081803213
:1005700009F41082319682E0EB38F807B9F734E0DD
:10058000E32EF12CEC0EFD1E6E010894C11CD11C53
:10059000F8018081898381818A831B82C6010E9440
:1005A000B908F70181937F010E5F1F4FF2E0013818
:1005B0001F0771F76C8170E080E090E020E13EE081
:1005C00040E050E00E9436087B018C016D8170E0B4
:1005D00080E090E02CE330E040E050E00E943608FC
:1005E000E60EF71E081F191F8E81E80EF11C011D73
:1005F000111DE0924E02F0924F02009350021093B0
:100600005102E0925202F09253020093540210936E
:10061000550281E38093790281E390E0B801A7015C
:100620000E940C0980EC0E94BB0583E691E00E94C9
:1006300015061092720289E50E948101809178026C
:10064000882351F4EBE7F2E080E2819392E0EB380B
:10065000F907D9F710927A0280E026960FB6F8943F
:10066000DEBF0FBECDBFCF91DF911F910F91FF90E5
:10067000EF90DF90CF9008951BBA8FE38ABB18BA32
:1006800080EC87BB15BA97EF94BB82BB80E481BB3B
:1006900013B88FEF82B9109262008FE080936100EF
:1006A000089584E080938A008EEC9FEF90938900F8
:1006B00080938800EDE7F0E0808184608083789407
:1006C000089584E08EBD8EEC9FEF9DBD8CBD87B7F5
:1006D000846087BF089587B78C7F87BF88E080BF1D
:1006E00012BE85E083BF87B7816087BF08951F92E0
:1006F0000F920FB60F9211242F933F934F935F9356
:100700006F937F938F939F93AF93BF93EF93FF93D9
:100710008EEC9FEF9093890080938800EDE7F0E0E6
:100720008081846080836091520270915302809135
:100730005402909155020E94B400FF91EF91BF9135
:10074000AF919F918F917F916F915F914F913F9169
:100750002F910F900FBE0F901F9018951F920F9220
:100760000FB60F9211242F933F934F935F936F9384
:100770007F938F939F93AF93BF93EF93FF9380915A
:100780007502882329F40E9445018093750202C0F6
:100790000E945D010E94970080937702882319F0E0
:1007A00081500E9481018CE09EEF9DBD8CBD84E054
:1007B0008EBD87B7846087BFFF91EF91BF91AF91E6
:1007C0009F918F917F916F915F914F913F912F9169
:1007D0000F900FBE0F901F9018951F920F920FB69B
:1007E0000F9211242F923F924F925F926F927F92BD
:1007F0008F929F92AF92BF92CF92DF92EF92FF9231
:100800000F931F932F933F934F935F936F937F9318
:100810008F939F93AF93BF93EF93FF93F89480913F
:1008200074028823E9F088B390E4892788BB80911B
:10083000520290915302A0915402B0915502019737
:10084000A109B1098093520290935302A0935402DC
:10085000B09355020097A105B10511F40E94120151
:10086000E0905202F0905302009154021091550210
:10087000C801B70120EA3CE840E050E00E94680867
:1008800020938B02C801B70120E13EE040E050E038
:100890000E9468083B014C017AE0A72EB12CC12CC4
:1008A000D12CCA01B901A60195010E946808609384
:1008B0008C02C401B30128E532E040E050E00E9420
:1008C000680820938D026CE3262E312C412C512C8C
:1008D000C401B301A20191010E946808CA01B901D3
:1008E000A60195010E94680860938E02C801B701B5
:1008F000A20191010E946808A60195010E94680862
:1009000020938F02609390027894FF91EF91BF91B2
:10091000AF919F918F917F916F915F914F913F9197
:100920002F911F910F91FF90EF90DF90CF90BF908C
:10093000AF909F908F907F906F905F904F903F907F
:100940002F900F900FBE0F901F9018958EE092E0A1
:1009500061E070E040E150E00E94DF088EE192E04B
:1009600061E170E040E150E00E94DF088EE292E039
:1009700061E270E040E150E00E94DF0881E390E036
:100980000E94EF0860934E0270934F0280935002D2
:10099000909351028EE392E061E470E048E050E011
:1009A0000E94DF0880914E0290914F02A091500268
:1009B000B09151028093520290935302A09354023B
:1009C000B093550280E008951F930E94EA071AE051
:1009D0000E94EA0781501150D9F7893009F072C09E
:1009E0008EE092E061E070E040E150E00E94F508A6
:1009F0008EE192E061E170E040E150E00E94F50894
:100A00008EE292E061E270E040E150E00E94F50881
:100A100040914E0250914F026091500270915102EC
:100A200081E390E00E940C0981E00E94BB0584E70D
:100A300091E00E94150686E492E068E00E94B0070B
:100A40008823C9F386E492E06EE372E048E00E94F6
:100A50006500882381F086E492E06EE372E048E06E
:100A60000E94770081E00E94BB0581E891E00E942E
:100A7000150680E01EC08EE392E061E470E048E07D
:100A800050E00E94F50881E00E94BB0581E991E0F9
:100A90000E9415068FE392E4AFE081509040A040A1
:100AA000E1F700C0000081E00E94BB050E948500C4
:100AB00081E0A3ECB9E01197F1F700C000008823B2
:100AC00009F4B9CF1F9108950E943C030E94E307E7
:100AD0000E9495058CE00E94BB0581E00E94BB0549
:100AE0000E94E4040E94A60480910D0290E0E4E0DC
:100AF000880F991FEA95E1F783569E4F60E10E94A7
:100B000046060E9451030E9461030E946B0385B751
:100B1000806285BF8895FECFAA9A89EF90E0019701
:100B2000F1F700C00000AA9808951F93A8988FE4D9
:100B300093EC0197F1F700C0000010E315BB00C073
:100B400000000E948C0500C0000015BB00C0000022
:100B50000E948C0500C0000015BB00C000000E9470
:100B60008C0500C0000080E285BB00C000000E9430
:100B70008C051F910895DF93CF930F92CDB7DEB709
:100B800025B3982F9F60206F922395BB00C0000073
:100B9000A89800C0000089830E948C0596EA9A9567
:100BA000F1F700C095B389818295807F9F70892B72
:100BB00085BB00C00000A89800C000000E948C0502
:100BC000E6EAEA95F1F700C00F90CF91DF91089522
:100BD000DF93CF930F92CDB7DEB725B3982F9F60E9
:100BE000206F922395BB00C00000A89A00C00000AF
:100BF00089830E948C0596EA9A95F1F700C095B317
:100C000089818295807F9F70892B85BB00C0000001
:100C1000A89A00C000000E948C05E6EAEA95F1F768
:100C200000C00F90CF91DF910895CF92DF92FF9295
:100C30000F931F93DF93CF930F92CDB7DEB7F82EAC
:100C40000F2D192FCC24DD240CC0F80181918F01C8
:100C500099830E94E80500C000000894C11CD11CC3
:100C60009981AF2DB92FFD0101900020E9F731974F
:100C7000EA1BFB0BCE16DF0640F30F90CF91DF91FE
:100C80001F910F91FF90DF90CF900895EF92FF9208
:100C90000F931F93CF93DF93082F192FC0E0D0E05D
:100CA000E62EFF2408C0F80181918F010E94E8051B
:100CB00000C000002196CE15DF05ACF3DF91CF9187
:100CC0001F910F91FF90EF9008954F925F926F9256
:100CD0007F928F929F92AF92BF92CF92DF92EF92CC
:100CE000FF921F93DF93CF93CDB7DEB7A8970FB6D0
:100CF000F894DEBF0FBECDBF6B017C0197FF0BC028
:100D00008DE20E94E805F094E094D094C094C11C58
:100D1000D11CE11CF11C10E02E010894411C511C57
:100D20002AE0622E712C812C912C1F5FA12EBB24F6
:100D3000AA0CBB1CA40CB51CC701B601A4019301ED
:100D40000E946808F5017183608369017A01C1140A
:100D5000D104E104F10449F70CC0E12FF0E0EE0FFB
:100D6000FF1FEC0DFD1D8081805D0E94E805115084
:100D700004C06E010894C11CD11C112371F7A89600
:100D80000FB6F894DEBF0FBECDBFCF91DF911F919C
:100D9000FF90EF90DF90CF90BF90AF909F908F909B
:100DA0007F906F905F904F9008951F936AE070E07E
:100DB0000E945508182F862F805D0E94E805812F1C
:100DC000805D0E94E8051F91089580E80E94BB05A0
:100DD0000895CF93DF93C8E2D0E080EC0E94BB057A
:100DE0002197D9F7DF91CF9108958130910529F4AA
:100DF000AD9A85B3806284BB0895009711F4AD98D5
:100E0000A5980895F8941092920226C0982F97956D
:100E1000992797958695992379F48F98979895E0D7
:100E20009A95F1F78F9A979891E29A95F1F70000C9
:100E30008F9A979A00C00BC08F98979895E09A95D3
:100E4000F1F78F9A979A91E29A95F1F700009091B5
:100E500092029F5F90939202909192029830B0F22A
:100E600078940895EF92FF920F931F93CF93DF939F
:100E7000282F392FD90180E090E070E041E050E068
:100E800012C00191002341F0EA01022E02C0CC0FF2
:100E9000DD1F0A94E2F71C2B2F5F3F4F28303105EE
:100EA00081F71D9301968617970764F4FC0123E0F0
:100EB000EE0FFF1F2A95E1F7ED56FD4F20E030E0E1
:100EC00010E0DFCF81E0DF91CF911F910F91FF9074
:100ED000EF900895F8941092920241E039C0109278
:100EE00091022DC08F9A979800C0000097988F9814
:100EF00032E03A95F1F730E0E0919202879B0CC026
:100F0000F0E073E0EE0FFF1F7A95E1F7E20FF31FB9
:100F1000ED56FD4F40830BC0F0E053E0EE0FFF1F96
:100F20005A95E1F7E20FF31FED56FD4F108228E2CC
:100F30002A95F1F7209191022F5F20939102209141
:100F40009102283078F2209192022F5F2093920232
:100F500020919202283018F278940E943207089566
:100F60000F931F93DF93CF930F92CDB7DEB78C0112
:100F70008F9A9798F89481EC8A95F1F700008F98F2
:100F8000E7E1EA95F1F70000879B07C0F8E8FA95DA
:100F9000F1F700C0789480E010C088E88A95F1F7F6
:100FA00000C0789483E390E069830E940207C8013F
:100FB000698170E00E946A0781E00F90CF91DF9114
:100FC0001F910F9108958FE08093620080EF8093CE
:100FD0006100089580E090E021E030E0AC014C5FDA
:100FE0005F4FB90102C0660F771F4A95E2F7AB0168
:100FF00040954093620040B14F7081F14B30D9F081
:101000004C3018F4473051F51FC04D3059F04E3078
:1010100029F5FC01EE0FFF1FEE0FFF1FEF59FD4FEB
:1010200080811AC0FC01EE0FFF1FEE0FFF1FEF596A
:10103000FD4F818111C0FC01EE0FFF1FEE0FFF1F5E
:10104000EF59FD4F828108C0FC01EE0FFF1FEE0F2C
:10105000FF1FEF59FD4F83818F5F08950196843004
:10106000910509F0BBCF000080E00895629FD00198
:10107000739FF001829FE00DF11D649FE00DF11D53
:10108000929FF00D839FF00D749FF00D659FF00D02
:101090009927729FB00DE11DF91F639FB00DE11DEF
:1010A000F91FBD01CF011124089597FB092E0726D2
:1010B0000AD077FD04D027D006D000201AF470950E
:1010C00061957F4F0895F6F7909581959F4F08950C
:1010D00097FB092E05260ED057FD04D028D00AD044
:1010E000001C38F450954095309521953F4F4F4F57
:1010F0005F4F0895F6F790958095709561957F4FB5
:101100008F4F9F4F0895AA1BBB1B51E107C0AA1F19
:10111000BB1FA617B70710F0A61BB70B881F991F98
:101120005A95A9F780959095BC01CD010895A1E24B
:101130001A2EAA1BBB1BFD010DC0AA1FBB1FEE1F51
:10114000FF1FA217B307E407F50720F0A21BB30B9C
:10115000E40BF50B661F771F881F991F1A9469F718
:1011600060957095809590959B01AC01BD01CF0174
:101170000895FC0188279927E89421912032E9F30A
:10118000293010F02E30C8F32B3241F02D3239F4D3
:10119000689404C00E94D708820F911D21912053AA
:1011A0002A30C0F31EF4909581959F4F08957AE000
:1011B000979F902D879F802D910D11240895DC011C
:1011C000CB01FC01E199FECF06C0FFBBEEBBE09A6C
:1011D00031960DB20D9241505040B8F70895A6E1F6
:1011E000B0E044E050E00C94E108DC01CB0103C026
:1011F0002D910E94000941505040D0F70895262FAC
:10120000E199FECF9FBB8EBB2DBB0FB6F894E29A3F
:10121000E19A0FBE01960895242F0E940009252F00
:101220000E9400090C9414090E94FF08272F0C94B7
:061230000009F894FFCF55
:1012360020202047414D45204F564552210020424F
:101246004F4F4D20424F4F4D20424F4F4D2000579C
:10125600726F6E6720436F64652120202020200076
:10126600436F6465204F4B21202020202020202022
:101276000057726F6E672050617373776F726421C7
:10128600200050617373776F7264204F4B212020CA
:1012960020200054696D657220736574206F6B2180
:1012A6002020200050555420544845204B455921B4
:1012B6000057524F4E47204B455920524541442135
:1012C600004B4559205245414445442100456E7422
:1012D60065722053544F5020636F646520456E74C9
:1012E600657220535441525420636F6465456E7491
:1012F60065722041646D696E20636F646553455461
:101306002041646D696E20636F64652020534554E7
:1013160020535441525420636F6465202053455432
:101326002053544F5020636F64652020205345544A
:101336002054696D6572202020202020200133333F
:10134600332020202020202020202020202033355C
:10135600332020202020202020202020202035334C
:1013660035202020202020202020202020202B2B4C
:101376002B2B2B2B2B2B2D2D2D2D2D2D2D2D100EDF
:101386000000100E0000013F065B4F666D7D077F73
:101396006F11121314010407580205080003060909
:0213A6005900EC
:00000001FF
