:100000000C9446000C9463000C9463000C94630001
:100010000C9463000C9463000C9463000C946300D4
:100020000C9463000C9463000C9463000C946300C4
:100030000C9463000C9463000C9459040C946300BA
:100040000C949C040C9463000C9463000C94630067
:100050000C9463000C9463000C9463000C94630094
:100060000C9463000C9463000C9463000C94630084
:100070000C9463000C941E040C9463000C946300B5
:100080000C9463000C9463000C94630011241FBE55
:10009000CFEFD0E1DEBFCDBF12E0A0E0B1E0E6EEF1
:1000A000F3E102C005900D92A23AB107D9F713E02F
:1000B000A2EAB2E001C01D92A330B107E1F70E94AD
:1000C00047060C94F1090C940000262F372FD90114
:1000D000E82FF92F04C021919D91291731F49E2F0B
:1000E000981B9417C0F380E0089581E00895282FAD
:1000F000392FD901862F972FFC0180E003C09D91F5
:1001000091938F5F8417D8F308958FEF8093100237
:100110008093110280931202809313028093140241
:100120008093150280931602809317020895DF933F
:10013000CF93CDB7DEB761970FB6F894DEBF0FBE91
:10014000CDBF81E08093D701C6980E949306DE015F
:100150001196E6E7F2E081E101900D928150E1F71E
:10016000CE0101960E94ED068FEB97E2A9E0815047
:100170009040A040E1F700C0000081E00E9493069B
:10018000C59861960FB6F894DEBF0FBECDBFCF9174
:10019000DF910895DF93CF93CDB7DEB761970FB6A8
:1001A000F894DEBF0FBECDBF81E08093D6011092E0
:1001B000D701C59A0E949306DE011196E5E6F2E0AA
:1001C00081E101900D928150E1F7CE0101960E94EC
:1001D000ED068FEB97E2A9E081509040A040E1F757
:1001E00000C0000081E00E9493068091D60190E05B
:1001F00024E0880F991F2A95E1F78A599E4F60E104
:100200000E941E0761960FB6F894DEBF0FBECDBFE9
:10021000CF91DF9108950E94C208882339F0909110
:100220006402992339F010926402089591E090934A
:100230006402089580E008958A3030F4E82FF0E0F9
:10024000E957FD4F808101C080E061118068089509
:10025000EF92FF920F931F93CF93DF930BEB12E07C
:10026000C0E0D0E031E0E32EF12CC7010C2E02C03B
:10027000880F991F0A94E2F78BBBCE018170682F1B
:10028000F80181918F010E941C0183B9F2E4FA9573
:10029000F1F700C01BBA13B826E02A95F1F700C0A9
:1002A0002196C730D10509F780E0DF91CF911F91EA
:1002B0000F91FF90EF9008951092A3021092A40264
:1002C00081E00E94930685E591E00E94ED06809111
:1002D000180290911902A0911A02B0911B0280930A
:1002E0001C0290931D02A0931E02B0931F02C69899
:1002F0008FEB97E2A9E081509040A040E1F700C069
:1003000000000E94970008951092A402C69A0895D2
:100310000F931F93DF93CF93CDB7DEB761970FB6DF
:10032000F894DEBF0FBECDBF1092A4021092A302BC
:100330008091180290911902A0911A02B0911B02AB
:1003400080931C0290931D02A0931E02B0931F0283
:10035000DE011196E3E5F2E081E101900D9281501A
:10036000E1F781E00E9493068E010F5F1F4FC801E5
:100370000E94ED0680EC0E949306C8010E94ED06E3
:10038000C6988E9A969A8FE392E4AFE0815090409F
:10039000A040E1F700C0000061960FB6F894DEBF00
:1003A0000FBECDBFCF91DF911F910F91089580E1D6
:1003B00092E068E00E948808882369F080E192E07A
:1003C00068E072E048E00E946500882331F40E94F2
:1003D000850081E0089580E0089580E008951F93EE
:1003E000813091F58091A302882329F01092A50213
:1003F0000E945C0127C01092A5028091D70188233A
:1004000019F00E94CA001EC01AE00E94C208815062
:100410001150D9F78930A1F482E08093D60181E0B0
:100420000E9493068091D60190E044E0880F991FC6
:100430004A95E1F78A599E4F60E10E941E0702C06B
:100440000E94970081E001C080E01F910895CF9243
:10045000DF92EF92FF920F931F93DF93CF9300D021
:1004600000D000D0CDB7DEB7982F9855923030F13C
:100470009091AA02903119F49FE09093AA02909172
:10048000AA02E92FF0E0E555FD4F805D8083892FBA
:100490008F5F8093AA0290E206C0E82FF0E0E55556
:1004A000FD4F90838F5F8031C0F380EC0E949306F4
:1004B0008BEA92E060E10E941E0774C1893509F061
:1004C00044C01092A8028091A4028823E9F01092FF
:1004D000D60181E00E9493068091D60190E074E0FD
:1004E000880F991F7A95E1F78A599E4F60E10E9423
:1004F0001E07EBEAF2E080E2819392E0EB3BF90722
:10050000D9F71092AA0240C18091A202882349F033
:100510008091D6018F5F8093D601873029F483E0E4
:1005200001C081E08093D60181E00E949306809112
:10053000D60190E064E0880F991F6A95E1F78A5927
:100540009E4F60E10E941E071FC10091D60103303B
:1005500009F46EC0043030F4013059F1023008F073
:100560004DC00AC0053009F48AC0053008F478C0CF
:10057000063009F009C19DC08091A8028F5F809369
:10058000A802833009F000C11092A8028BEA92E021
:1005900068EF71E040E10E9465008823E9F480EC97
:1005A0000E94930683E391E00E94ED060E9484017D
:1005B000E8C08091A8028F5F8093A802833009F081
:1005C000E3C01092A8028BEA92E068EE71E040E18D
:1005D0000E946500882331F080EC0E94930682E23D
:1005E00091E064C080EC0E94930683E391E00E9456
:1005F000ED060093A4020093A302C3C08BEA92E02D
:1006000068ED71E040E10E946500882331F080ECE4
:100610000E94930680E091E049C080EC0E9493061E
:1006200081E191E00E94ED0681E08093A202ACC0DE
:100630008BEA92E068ED71E040E10E94770081E092
:100640008093A90288ED91E061E070E040E150E024
:100650000E94CD0980EC0E94930681E191E026C0C2
:100660008BEA92E068EE71E040E10E94770081E160
:100670008093A90288EE91E061E170E00EC08BEA00
:1006800092E068EF71E040E10E94770081E28093A0
:10069000A90288EF91E061E270E040E150E00E9441
:1006A000CD0980EC0E94930683E391E00E94ED0661
:1006B0006BC00BEA12E0F8018081803209F41082ED
:1006C000319682E0EB3BF807B9F754E0E52EF12CC8
:1006D000EC0EFD1E6E010894C11CD11CF801808136
:1006E000898381818A831B82C6010E949109F70157
:1006F00081937F010E5F1F4FF2E0013B1F0771F7EF
:100700006C8170E080E090E020E13EE040E050E06D
:100710000E940E097B018C016D8170E080E090E009
:100720002CE330E040E050E00E940E09E60EF71E98
:10073000081F191F8E81E80EF11C011D111DE0928A
:100740001802F092190200931A0210931B02E09211
:100750001C02F0921D0200931E0210931F0281E3FF
:100760008093A90281E390E0B801A7010E94E40907
:1007700080EC0E94930684E491E00E94ED061092C2
:10078000A20289E50E9427028091A802882351F4E1
:10079000EBEAF2E080E2819392E0EB3BF907D9F7D4
:1007A0001092AA0280E026960FB6F894DEBF0FBE24
:1007B000CDBFCF91DF911F910F91FF90EF90DF9010
:1007C000CF9008951BBA8FE38ABB18BA80EE87BB1F
:1007D00015BA87EF84BB80EC82BB80E481BB13B881
:1007E0008FEF82B9109262008FE0809361000895CC
:1007F00084E080938A008EEC9FEF90938900809331
:100800008800EDE7F0E0808184608083789408952B
:1008100084E08EBD8EEC9FEF9DBD8CBD87B784605C
:1008200087BF089587B78C7F87BF88E080BF12BEDF
:1008300085E083BF87B7816087BF08951F920F92BD
:100840000FB60F9211242F933F934F935F936F93A3
:100850007F938F939F93AF93BF93EF93FF938EEC10
:100860009FEF909389008093880080917D00846041
:1008700080937D008091D701882351F460911C0200
:1008800070911D0280911E0290911F020E9428010A
:10089000FF91EF91BF91AF919F918F917F916F9158
:1008A0005F914F913F912F910F900FBE0F901F902E
:1008B00018951F920F920FB60F9211242F933F930A
:1008C0004F935F936F937F938F939F93AF93BF9358
:1008D000EF93FF938091A502882329F40E94D7010A
:1008E0008093A50202C00E94EF018091D701882366
:1008F00049F40E940B018093A702882319F08150CC
:100900000E9427028CE09EEF9DBD8CBD84E08EBDD1
:1009100087B7846087BFFF91EF91BF91AF919F919F
:100920008F917F916F915F914F913F912F910F9098
:100930000FBE0F901F9018951F920F920FB60F9237
:1009400011242F923F924F925F926F927F928F92DB
:100950009F92AF92BF92CF92DF92EF92FF920F934E
:100960001F932F933F934F935F936F937F938F9337
:100970009F93AF93BF93EF93FF938091D701882309
:1009800009F077C0F8948091A4028823E9F088B335
:1009900090E4892788BB80911C0290911D02A09150
:1009A0001E02B0911F020197A109B10980931C0298
:1009B00090931D02A0931E02B0931F020097A10501
:1009C000B10511F40E948801E0901C02F0901D0214
:1009D00000911E0210911F02C801B70120EA3CE8F5
:1009E00040E050E00E9440092093BB02C801B701DB
:1009F00020E13EE040E050E00E9440093B014C0114
:100A0000FAE0AF2EB12CC12CD12CCA01B901A6013C
:100A100095010E9440096093BC02C401B30128E51E
:100A200032E040E050E00E9440092093BD02ECE338
:100A30002E2E312C412C512CC401B301A201910165
:100A40000E944009CA01B901A60195010E9440090E
:100A50006093BE02C801B701A20191010E94400942
:100A6000A60195010E9440092093BF026093C00235
:100A70007894FF91EF91BF91AF919F918F917F916A
:100A80006F915F914F913F912F911F910F91FF9027
:100A9000EF90DF90CF90BF90AF909F908F907F901E
:100AA0006F905F904F903F902F900F900FBE0F90E0
:100AB0001F90189588ED91E061E070E040E150E012
:100AC0000E94B70988EE91E061E170E040E150E0FA
:100AD0000E94B70988EF91E061E270E040E150E0E8
:100AE0000E94B70981E390E00E94C7096093180251
:100AF0007093190280931A0290931B0288E092E08F
:100B000061E470E048E050E00E94B709809118026B
:100B100090911902A0911A02B0911B0280931C02BD
:100B200090931D02A0931E02B0931F0280E00895CF
:100B30000F931F93DF93CF93CDB7DEB7A2970FB676
:100B4000F894DEBF0FBECDBF0E94C2080AE00E942B
:100B5000C20881500150D9F7893009F08DC0C59A7B
:100B600088ED91E061E070E040E150E00E94CD0945
:100B700088EE91E061E170E040E150E00E94CD0933
:100B800088EF91E061E270E040E150E00E94CD0921
:100B9000409118025091190260911A0270911B0243
:100BA00081E390E00E94E40981E00E949306DE0167
:100BB0001196E2E4F2E081E101900D928150E1F7BB
:100BC000CE0101960E94ED068E010E5E1F4F80E160
:100BD00092E068E00E9488088823C9F380E192E0EF
:100BE00068E072E048E00E9465008823B9F080E187
:100BF00092E068E072E048E00E94770081E00E94A5
:100C00009306D801E1E3F2E081E101900D92815079
:100C1000E1F7C8010E94ED0680E025C088E092E07F
:100C200061E470E048E050E00E94CD0981E00E945C
:100C30009306D801E0E2F2E081E101900D9281504B
:100C4000E1F7C8010E94ED068FE392E4AFE0815026
:100C50009040A040E1F700C0000081E00E949306B0
:100C60000E94850081E0A3ECB9E01197F1F700C084
:100C70000000882309F4ABCFA2960FB6F894DEBF2C
:100C80000FBECDBFCF91DF911F910F9108950E94AC
:100C9000E2030E94BB080E946D068CE00E9493064E
:100CA00081E00E9493060E9498050E945A050E94C6
:100CB000F8030E9408040E9412040E94970085B75E
:100CC000806285BF8895FECFAA9A89EF90E0019750
:100CD000F1F700C00000AA9808951F93A8988FE428
:100CE00093EC0197F1F700C0000010E315BB00C0C2
:100CF00000000E94640600C0000015BB00C0000098
:100D00000E94640600C0000015BB00C000000E94E5
:100D1000640600C0000080E285BB00C000000E94A5
:100D200064061F910895DF93CF930F92CDB7DEB77E
:100D300025B3982F9F60206F922395BB00C00000C1
:100D4000A89800C0000089830E94640696EA9A95DC
:100D5000F1F700C095B389818295807F9F70892BC0
:100D600085BB00C00000A89800C000000E94640677
:100D7000E6EAEA95F1F700C00F90CF91DF91089570
:100D8000DF93CF930F92CDB7DEB725B3982F9F6037
:100D9000206F922395BB00C00000A89A00C00000FD
:100DA00089830E94640696EA9A95F1F700C095B38C
:100DB00089818295807F9F70892B85BB00C0000050
:100DC000A89A00C000000E946406E6EAEA95F1F7DE
:100DD00000C00F90CF91DF910895CF92DF92FF92E4
:100DE0000F931F93DF93CF930F92CDB7DEB7F82EFB
:100DF0000F2D192FCC24DD240CC0F80181918F0117
:100E000099830E94C00600C000000894C11CD11C38
:100E10009981AF2DB92FFD0101900020E9F731979D
:100E2000EA1BFB0BCE16DF0640F30F90CF91DF914C
:100E30001F910F91FF90DF90CF900895EF92FF9256
:100E40000F931F93CF93DF93082F192FC0E0D0E0AB
:100E5000E62EFF2408C0F80181918F010E94C00690
:100E600000C000002196CE15DF05ACF3DF91CF91D5
:100E70001F910F91FF90EF9008954F925F926F92A4
:100E80007F928F929F92AF92BF92CF92DF92EF921A
:100E9000FF921F93DF93CF93CDB7DEB7A8970FB61E
:100EA000F894DEBF0FBECDBF6B017C0197FF0BC076
:100EB0008DE20E94C006F094E094D094C094C11CCE
:100EC000D11CE11CF11C10E02E010894411C511CA6
:100ED0002AE0622E712C812C912C1F5FA12EBB2445
:100EE000AA0CBB1CA40CB51CC701B601A40193013C
:100EF0000E944009F5017183608369017A01C11480
:100F0000D104E104F10449F70CC0E12FF0E0EE0F49
:100F1000FF1FEC0DFD1D8081805D0E94C0061150F9
:100F200004C06E010894C11CD11C112371F7A8964E
:100F30000FB6F894DEBF0FBECDBFCF91DF911F91EA
:100F4000FF90EF90DF90CF90BF90AF909F908F90E9
:100F50007F906F905F904F9008951F936AE070E0CC
:100F60000E942D09182F862F805D0E94C006812FB8
:100F7000805D0E94C0061F91089580E80E9493063C
:100F80000895CF93DF93C8E2D0E080EC0E949306EF
:100F90002197D9F7DF91CF9108958130910529F4F8
:100FA000AD9A85B3806284BB0895009711F4AD9823
:100FB000A5980895F8941092C20226C0982F97958C
:100FC000992797958695992379F48F98979895E026
:100FD0009A95F1F78F9A979891E29A95F1F7000018
:100FE0008F9A979A00C00BC08F98979895E09A9522
:100FF000F1F78F9A979A91E29A95F1F70000909104
:10100000C2029F5F9093C2029091C2029830B0F2E8
:1010100078940895EF92FF920F931F93CF93DF93ED
:10102000282F392FD90180E090E070E041E050E0B6
:1010300012C00191002341F0EA01022E02C0CC0F40
:10104000DD1F0A94E2F71C2B2F5F3F4F283031053C
:1010500081F71D9301968617970764F4FC0123E03E
:10106000EE0FFF1F2A95E1F7ED53FD4F20E030E032
:1010700010E0DFCF81E0DF91CF911F910F91FF90C2
:10108000EF900895F8941092C20241E039C0109296
:10109000C1022DC08F9A979800C0000097988F9832
:1010A00032E03A95F1F730E0E091C202879B0CC044
:1010B000F0E073E0EE0FFF1F7A95E1F7E20FF31F08
:1010C000ED53FD4F40830BC0F0E053E0EE0FFF1FE8
:1010D0005A95E1F7E20FF31FED53FD4F108228E21E
:1010E0002A95F1F72091C1022F5F2093C102209130
:1010F000C102283078F22091C2022F5F2093C202F1
:101100002091C202283018F278940E940A080895AB
:101110000F931F93DF93CF930F92CDB7DEB78C0160
:101120008F9A9798F89481EC8A95F1F700008F9840
:10113000E7E1EA95F1F70000879B07C0F8E8FA9528
:10114000F1F700C0789480E010C088E88A95F1F744
:1011500000C0789483E390E069830E94DA07C801B5
:10116000698170E00E94420881E00F90CF91DF9189
:101170001F910F9108958FE08093620080EF80931C
:101180006100089580E090E021E030E0AC014C5F28
:101190005F4FB90102C0660F771F4A95E2F7AB01B6
:1011A00040954093620040B14F7081F14B30D9F0CF
:1011B0004C3018F4473051F51FC04D3059F04E30C7
:1011C00029F5FC01EE0FFF1FEE0FFF1FEF56FD4F3D
:1011D00080811AC0FC01EE0FFF1FEE0FFF1FEF56BC
:1011E000FD4F818111C0FC01EE0FFF1FEE0FFF1FAD
:1011F000EF56FD4F828108C0FC01EE0FFF1FEE0F7E
:10120000FF1FEF56FD4F83818F5F08950196843055
:10121000910509F0BBCF000080E00895629FD001E6
:10122000739FF001829FE00DF11D649FE00DF11DA1
:10123000929FF00D839FF00D749FF00D659FF00D50
:101240009927729FB00DE11DF91F639FB00DE11D3D
:10125000F91FBD01CF011124089597FB092E072620
:101260000AD077FD04D027D006D000201AF470955C
:1012700061957F4F0895F6F7909581959F4F08955A
:1012800097FB092E05260ED057FD04D028D00AD092
:10129000001C38F450954095309521953F4F4F4FA5
:1012A0005F4F0895F6F790958095709561957F4F03
:1012B0008F4F9F4F0895AA1BBB1B51E107C0AA1F68
:1012C000BB1FA617B70710F0A61BB70B881F991FE7
:1012D0005A95A9F780959095BC01CD010895A1E29A
:1012E0001A2EAA1BBB1BFD010DC0AA1FBB1FEE1FA0
:1012F000FF1FA217B307E407F50720F0A21BB30BEB
:10130000E40BF50B661F771F881F991F1A9469F766
:1013100060957095809590959B01AC01BD01CF01C2
:101320000895FC0188279927E89421912032E9F358
:10133000293010F02E30C8F32B3241F02D3239F421
:10134000689404C00E94AF09820F911D219120531F
:101350002A30C0F31EF4909581959F4F08957AE04E
:10136000979F902D879F802D910D11240895DC016A
:10137000CB01FC01E199FECF06C0FFBBEEBBE09ABA
:1013800031960DB20D9241505040B8F70895A6E144
:10139000B0E044E050E00C94B909DC01CB0103C09B
:1013A0002D910E94D80941505040D0F70895262F22
:1013B000E199FECF9FBB8EBB2DBB0FB6F894E29A8E
:1013C000E19A0FBE01960895242F0E94D809252F77
:1013D0000E94D8090C94EC090E94D709272F0C947D
:0613E000D809F894FFCFCC
:1013E600484542455048AEA620A841504FA7C421C3
:1013F60000A841504FA7C420A850A548B1542100C9
:101406000000484542455048AEA6204B4F442100B7
:101416000000004B4F4420A850A548B154210000BD
:10142600000000005441A64D455020A441444148C7
:10143600210000000020A5A15041204F4B4F48AB92
:10144600454841210000A841504FA7C4204F4354AE
:1014560041484F424120A841504FA7C42043544120
:10146600505441202020A841504FA7C42041444D4C
:10147600A54841202020484F42AEA6204B4F44208D
:1014860041444DA54841484F42AEA6204B4F44200B
:10149600435441505441484F42AEA6204B4F44203E
:1014A60043544FA82020A441444154C4205441A68B
:1014B6004D455020202001013333332020202020A9
:1014C60020202020202020203335332020202020DB
:1014D60020202020202020203533352020202020C9
:1014E60020202020202020202B2B2B2B2B2B2B2B9E
:1014F6002D2D2D2D2D2D2D2D100E0000100E000042
:101506004BA7B0AB20A8504FABA5544148210000D3
:10151600004FACA5A04B41204BA7B0AB412100002A
:101526000000A850A5A74FA3A55445204BA7B0ABD4
:10153600210000A0A94D20A0A94D20A0A94D20A0C2
:10154600A94D2000012020A8504FA0A9A34445483A
:10155600A5452E2E2E0020202042AE4BA7B0AB452F
:1015660048A5452E2E2E003F065B4F666D7D077FF4
:101576006F11121314010407580205080003060927
:0215860059000A
:00000001FF
